:1000000002C100002EC100002CC100002AC1000066
:1000100028C1000026C1000024C1000022C1000048
:1000200020C100001EC100001CC100001AC1000058
:1000300018C1000016C1000014C1000012C1000068
:1000400010C1000001C500000CC100000AC1000081
:1000500008C1000006C1000004C1000028C400005F
:1000600000C10000EEC30000C3C30000FAC00000DE
:10007000F8C00000F6C00000F4C00000F2C00000AC
:1000800060C40000EEC00000ECC00000EAC0000048
:10009000E8C00000E6C00000E4C00000E2C00000CC
:1000A000E0C00000DEC00000DCC00000DAC00000DC
:1000B000D8C00000D6C00000D4C00000D2C00000EC
:1000C000D0C00000CEC00000CCC00000CAC00000FC
:1000D000C8C00000C6C00000C4C00000C2C000000C
:1000E000C0C00000000020002300260029002C00D2
:1000F0002F00320000010000030106010901000089
:100100000A0B02090C0D0E08070304010000000091
:1001100000000000000000000000000000000000DF
:10012000000000000000000000001211100000009C
:1001300000000000000000000000000000000000BF
:100140000000000000002200250028002B002E00E7
:100150003100340002010000050108010B0100001C
:100160002100240027002A002D0030003300010167
:100170000000040107010A01050505050705080837
:100180000808020202020A0A080804040404010121
:100190000101010101010303030303030303040736
:1001A00007070C0C0C0C0C0C0C0C020202020606CD
:1001B0000606060606060B0B0B0B0B0B0B0B0102C0
:1001C0001020200808102040102040800201020169
:1001D0000804020101020408102040808040201021
:1001E000080402018004020180402010080402017A
:1001F00008040201010204081020408001020408E2
:1002000010204080A70511241FBECFEFD1E2DEBF32
:10021000CDBF00E00CBF12E0A0E0B2E0ECEFFEE0EA
:1002200000E00BBF02C007900D92AA31B107D9F7C9
:1002300022E0AAE1B2E001C01D92A93DB207E1F7B8
:1002400011E0C3E0D1E000E005C021970109802F53
:10025000FE014AD6C230D10780E00807B1F7A9D421
:100260004BC6CECE90E0FC01E254FE4F249188585C
:100270009E4FFC018491882399F090E0880F991F8C
:10028000FC01E25AFE4FA591B491FC01EC5BFE4FDC
:10029000859194918FB7F894EC91E22BEC938FBFFA
:1002A0000895AF92BF92CF92DF92EF92FF920F9399
:1002B0001F93CF93DF936C017B018B01040F151FFC
:1002C000EB015E01AE18BF08C017D10759F0699164
:1002D000D601ED91FC910190F081E02DC6011995B8
:1002E000892B79F7C501DF91CF911F910F91FF9075
:1002F000EF90DF90CF90BF90AF900895FC01538DA9
:10030000448D252F30E0842F90E0821B930B5417EF
:1003100010F0CF96089501970895FC01918D828D7C
:10032000981761F0A28DAE0FBF2FB11D5D968C9115
:10033000928D9F5F9F73928F90E008958FEF9FEF54
:100340000895FC01918D828D981731F0828DE80F10
:10035000F11D858D90E008958FEF9FEF0895FC01CA
:10036000918D228D892F90E0805C9F4F821B910997
:100370008F73992708958EE292E0F1DF21E0892BB7
:1003800009F420E0822F0895FC01A48DA80FB92F55
:10039000B11DA35ABF4F2C91848D90E001968F73AD
:1003A0009927848FA689B7892C93A089B1898C91CC
:1003B000837080648C93938D848D981306C002881B
:1003C000F389E02D80818F7D80830895EF92FF92E5
:1003D0000F931F93CF93DF93EC0181E0888F9B8D68
:1003E0008C8D98131AC0E889F989808185FF15C022
:1003F0009FB7F894EE89FF896083E889F989808145
:100400008370806480839FBF81E090E0DF91CF9113
:100410001F910F91FF90EF900895F62E0B8D10E035
:100420000F5F1F4F0F731127E02E8C8D8E110BC0A5
:100430000FB607FCFACFE889F989808185FFF5CFEF
:10044000CE01A2DFF2CFEB8DEC0FFD2FF11DE35AB1
:10045000FF4FF0829FB7F8940B8FEA89FB89808168
:100460008062D0CFCF93DF93EC01888D8823B1F0E9
:10047000AA89BB89E889F9898C9185FD03C08081AF
:1004800086FD0CC00FB607FCF7CF8C9185FFF2CF2D
:10049000808185FFEDCFCE0177DFEACFDF91CF916D
:1004A000089580E090E0892B21F065DF81110E94A2
:1004B000000080E090E0892B49F080E090E0892BFB
:1004C00029F00E94000081110E94000080E090E06D
:1004D000892B49F080E090E0892B29F00E940000F0
:1004E00081110E94000080E090E0892B49F080E0BB
:1004F00090E0892B29F00E94000081110C940000EB
:1005000008958150823108F059C0E82FF0E0882723
:10051000E457FD4F8F4FE8C4AC02B0029E02A40224
:10052000A802DE02B302B902BD02C302C702CB02B7
:10053000D102D502DE02D902DF02E30280918000FF
:100540008F77809380000895809180008F7DF9CF10
:1005500080918000877FF5CF84B58F7784BD089523
:1005600084B58F7DFBCF8091B0008F778093B000F2
:1005700008958091B0008F7DF9CF809190008F77A2
:10058000809390000895809190008F7DF9CF8091A5
:100590009000877FF5CF8091A0008F778093A00097
:1005A00008958091A0008F7DF9CF8091A000877F72
:1005B000F5CF809120018F7780932001089580915D
:1005C00020018F7DF9CF80912001877FF5CFCF93D8
:1005D000DF93282F30E0F901E250FF4F8491F901B9
:1005E000E254FE4FD491F901E858FE4FC491CC2358
:1005F00099F0811186DFEC2FF0E0EE0FFF1FEC5138
:10060000FF4FA591B491EC91ED2381E090E009F4C6
:1006100080E0DF91CF91089580E090E0FACF1F93C2
:10062000CF93DF93282F30E0F901E250FF4F849100
:10063000F901E254FE4FD491F901E858FE4FC491FC
:10064000CC23A1F0162F81115CDFEC2FF0E0EE0F30
:10065000FF1FEC5BFE4FA591B4918FB7F894EC911E
:10066000111108C0D095DE23DC938FBFDF91CF91AD
:100670001F910895DE2BF8CF0F931F93CF93DF9335
:100680008C01EB018091CB029091CC0208171907E5
:10069000A4F561E087E3C3DF1092D7028091CD0219
:1006A0009091CE02C817D9077CF561E08DE3B7DFE2
:1006B0001092D80281E02091CB023091CC02201719
:1006C000310709F480E08093CF0281E02091CD02D0
:1006D0003091CE022C173D0709F480E08093D002C0
:1006E0001093D4020093D302D093D602C093D502C4
:1006F000DF91CF911F910F91089560E087E38FDF25
:1007000081E08093D702CACF60E08DE388DF81E08B
:100710008093D802CFCFFC0101900020E9F73197F8
:10072000AF01481B590BBC018EE292E0BACD8F920B
:100730009F92AF92BF920F931F93CF93DF93CDB74A
:10074000DEB7A1970FB6F894DEBF0FBECDBF19A2DA
:10075000423008F44AE08E010F5D1F4F842E912C29
:10076000B12CA12CA50194019DD3E62FB901CA019A
:10077000EA30ECF4E05DD801EE938D01232B242BBD
:10078000252B81F790E080E0109711F0CD01C3DFB9
:10079000A1960FB6F894DEBF0FBECDBFDF91CF910B
:1007A0001F910F91BF90AF909F908F900895E95C3B
:1007B000E2CFCF92DF92EF92FF92CF93DF936B0164
:1007C0007C016DE28EE292E001DEEC016627772784
:1007D000CB016C197D098E099F094AE0A8DF8C0FB7
:1007E0009D1FDF91CF91FF90EF90DF90CF90089504
:1007F0001F920F920FB60F9211240BB60F922F93E8
:100800003F934F935F936F937F938F939F93AF9398
:10081000BF93EF93FF938EE292E0B6DDFF91EF91ED
:10082000BF91AF919F918F917F916F915F914F9108
:100830003F912F910F900BBE0F900FBE0F901F9006
:1008400018951F920F920FB60F9211240BB60F92AC
:100850002F938F939F93EF93FF93E0913E02F0913C
:100860003F028081E0914402F091450282FD1DC06B
:100870009081809147028F5F8F7320914802821789
:1008800041F0E0914702F0E0E25DFD4F958F8093EB
:100890004702FF91EF919F918F912F910F900BBE87
:1008A0000F900FBE0F901F9018958081F2CF1F926E
:1008B0000F920FB60F9211242F933F938F939F9314
:1008C000AF93BF938091230290912402A0912502BF
:1008D000B09126023091220223E0230F2D3758F5E4
:1008E0000196A11DB11D20932202809323029093B3
:1008F0002402A0932502B093260280911E029091BB
:100900001F02A0912002B09121020196A11DB11DEC
:1009100080931E0290931F02A0932002B0932102A5
:10092000BF91AF919F918F913F912F910F900FBEEB
:100930000F901F90189526E8230F0296A11DB11D58
:10094000D2CF1F920F920FB60F9211240BB60F92B7
:100950002F933F934F935F936F937F938F939F93C7
:10096000AF93BF93EF93FF938091D002882309F454
:100970004AC08EE02CDE892B29F48091D80288238E
:1009800009F441C080910002882309F456C0809187
:100990001A0290911B02019690931B0280931A02F7
:1009A0002091CD023091CE024091D5025091D602D5
:1009B000B901641B750BAB0177FF03C051954195DD
:1009C000510984179507D4F01092D0024091D802B3
:1009D000442361F1820F931F9093CE028093CD0246
:1009E00010921B0210921A028091D202882331F0D9
:1009F0001092CE021092CD021092D20261E08CE3EE
:100A00000EDE10920002FF91EF91BF91AF919F9186
:100A10008F917F916F915F914F913F912F910F90A7
:100A20000BBE0F900FBE0F901F901895281B390B0F
:100A30003093CE022093CD02D3CF60E08CE3EFDD84
:100A400081E080930002DFCF1F920F920FB60F92CA
:100A500011240BB60F922F933F934F935F936F9395
:100A60007F938F939F93AF93BF93EF93FF93809167
:100A7000CF02882309F44AC083E0A9DD019729F059
:100A80008091D702882309F441C080910102882314
:100A900009F456C080911C0290911D02019690931A
:100AA0001D0280931C022091CB023091CC02409118
:100AB000D3025091D402B901641B750BAB0177FFCF
:100AC00003C051954195510984179507D4F01092B0
:100AD000CF024091D702442361F1820F931F90937C
:100AE000CC028093CB0210921D0210921C028091C6
:100AF000D202882331F01092CC021092CB021092D5
:100B0000D20261E086E38BDD10920102FF91EF914A
:100B1000BF91AF919F918F917F916F915F914F9115
:100B20003F912F910F900BBE0F900FBE0F901F9013
:100B30001895281B390B3093CC022093CB02D3CFCE
:100B400060E086E36CDD81E080930102DFCFEEE2BE
:100B5000F2E01382128288EE93E0A0E0B0E084839A
:100B60009583A683B78386E092E09183808385ECAA
:100B700090E09587848784EC90E09787868780EC67
:100B800090E0918B808B81EC90E0938B828B82EC58
:100B900090E0958B848B86EC90E0978B868B118E02
:100BA000128E138E148EEBECF2E0148215821682F4
:100BB0000895789484B5826084BD84B5816084BDD5
:100BC00085B5826085BD85B5816085BD80916E00EB
:100BD000816080936E00109281008091810082601C
:100BE0008093810080918100816080938100809159
:100BF00080008160809380008091B1008460809348
:100C0000B1008091B00081608093B000809191002C
:100C10008260809391008091910081608093910027
:100C2000809190008160809390008091A10082600B
:100C30008093A1008091A10081608093A1008091A8
:100C4000A00081608093A000809121018260809348
:100C500021018091210181608093210180912001F7
:100C600081608093200180917A00846080937A0073
:100C700080917A00826080937A0080917A0081600E
:100C800080937A0080917A00806880937A00109235
:100C9000C10081E08093270280932802809329027B
:100CA000E0913E02F0913F02C2E0C083E0913A023F
:100CB000F0913B021082E0913C02F0913D0280E114
:100CC000808310924602E0914202F091430286E056
:100CD0008083E0914002F0914102808180618083B5
:100CE000E0914002F0914102808188608083E09130
:100CF0004002F0914102808180688083E09140024F
:100D0000F091410280818F7D808384E192E003DD58
:100D100086E192E000DD83E0A5DA61E083E07FDC3C
:100D20008EE0A0DA61E08EE07ADC10928000DAE0FA
:100D3000D09381001092820010928500109284005E
:100D400008EC10E01093890000938800C0936F00B6
:100D500086E388DA87E386DA86E284DA60E086E290
:100D60005EDC10929000D09391001092920010924D
:100D70009500109294001093990000939800C093EE
:100D800071008CE36FDA8DE36DDA88E36BDA60E093
:100D900088E345DC8EE0EBECF2E0DF011D928A9502
:100DA000E9F770E060E090E080E066DCD1E00BE91C
:100DB0001FE08EE292E0D3DA892B41F18EE292E0DD
:100DC000ACDAC82F60912C0270912D02072E000C16
:100DD000880B990B97FF1FC0ECDC86E192E09BDC4F
:100DE00060912A0270912B02072E000C880B990B40
:100DF00097FF14C0DEDC86E192E08DDCC23709F497
:100E000041C07CF4C13601F1C43671F1C8010197CB
:100E1000F1F747DBCECF4AE08ADCDFCF4AE087DC60
:100E2000EACFC33741F1C73789F760912A02709141
:100E30002B026C507E4F70932B0260932A0280919C
:100E4000CB029091CC020EC080912C0290912D0289
:100E5000845F914090932D0280932C026091CD028B
:100E60007091CE0209DCD2CF80912C0290912D029C
:100E70008C509E4FEFCF60912A0270912B02645FDD
:100E80007140D9CF10922D0210922C0210922B0299
:100E900010922A0270E060E090E080E0EDDBD093F9
:100EA000D202B4CFA1E21A2EAA1BBB1BFD010DC0BA
:100EB000AA1FBB1FEE1FFF1FA217B307E407F5070A
:100EC00020F0A21BB30BE40BF50B661F771F881FE6
:100ED000991F1A9469F760957095809590959B017C
:100EE000AC01BD01CF010895EE0FFF1F881F8BBF1E
:0C0EF0000790F691E02D1994F894FFCFC4
:100EFC00010100000000E60151017E013202AF0148
:0A0F0C008D01A10173000D0A000021
:00000001FF
