:1000000072C000009EC000009CC000009AC00000AA
:1000100098C0000096C0000094C0000092C000008C
:1000200090C000008EC000008CC000008AC000009C
:1000300088C0000086C0000084C0000082C00000AC
:1000400080C000007EC000007CC000007AC00000BC
:1000500078C0000076C0000074C0000058C20000E4
:1000600070C000001EC20000F3C100006AC00000A2
:1000700068C0000066C0000064C0000062C00000EC
:1000800060C000005EC000005CC000005AC00000FC
:1000900058C0000056C0000054C0000052C000000C
:1000A00050C000004EC000004CC000004AC000001C
:1000B00048C0000046C0000044C0000042C000002C
:1000C00040C000003EC000003CC000003AC000003C
:1000D00038C0000036C0000034C0000032C000004C
:1000E00030C00000D10211241FBECFEFD1E2DEBF2D
:1000F000CDBF00E00CBF23E0A4E2B2E001C01D923E
:10010000A031B207E1F712E0A0E0B2E0E6E3F8E0E8
:1001100000E00BBF02C007900D92A432B107D9F7DF
:1001200010E0C3E7D0E000E005C021970109802F6F
:10013000FE0177D3C237D10780E00807B1F770D24C
:1001400078C35ECFCF92DF92EF92FF920F931F930F
:100150002FB7F894C0902902D0902A02E0902B0289
:10016000F0902C022FBF6C0D7D1D8E1D9F1D4FB773
:10017000F8940091290210912A0220912B023091CB
:100180002C024FBF0C151D052E053F0528F06017EA
:1001900071078207930758F71F910F91FF90EF9017
:1001A000DF90CF900895AF92BF92CF92DF92EF92FF
:1001B000FF920F931F93CF93DF936C017B018B0111
:1001C000040F151FEB015E01AE18BF08C017D10761
:1001D00059F06991D601ED91FC910190F081E02DEB
:1001E000C6011995892B79F7C501DF91CF911F9130
:1001F0000F91FF90EF90DF90CF90BF90AF90089558
:10020000FC01538D448D252F30E0842F90E0821B1C
:10021000930B541710F0CF96089501970895FC01A1
:10022000918D828D981761F0A28DAE0FBF2FB11DF9
:100230005D968C91928D9F5F9F73928F90E0089551
:100240008FEF9FEF0895FC01918D828D981731F00B
:10025000828DE80FF11D858D90E008958FEF9FEF5F
:100260000895FC01918D228D892F90E0805C9F4F35
:10027000821B91098F73992708958DE292E0F1DF37
:1002800021E0892B09F420E0822F0895FC01A48D40
:10029000A80FB92FB11DA35ABF4F2C91848D90E0A8
:1002A00001968F739927848FA689B7892C93A0898B
:1002B000B1898C91837080648C93938D848D981315
:1002C00006C00288F389E02D80818F7D80830895A8
:1002D000EF92FF920F931F93CF93DF93EC0181E096
:1002E000888F9B8D8C8D98131AC0E889F98980813D
:1002F00085FF15C09FB7F894EE89FF896083E88970
:10030000F98980818370806480839FBF81E090E061
:10031000DF91CF911F910F91FF90EF900895F62EEE
:100320000B8D10E00F5F1F4F0F731127E02E8C8D88
:100330008E110BC00FB607FCFACFE889F9898081CE
:1003400085FFF5CFCE01A2DFF2CFEB8DEC0FFD2FB5
:10035000F11DE35AFF4FF0829FB7F8940B8FEA89A3
:10036000FB8980818062D0CFCF93DF93EC01888DB1
:100370008823B1F0AA89BB89E889F9898C9185FD28
:1003800003C0808186FD0CC00FB607FCF7CF8C91AF
:1003900085FFF2CF808185FFEDCFCE0177DFEACFF9
:1003A000DF91CF91089580E090E0892B21F065DF07
:1003B00081110E94000080E090E0892B49F080E0EC
:1003C00090E0892B29F00E94000081110E9400001A
:1003D00080E090E0892B49F080E090E0892B29F0C3
:1003E0000E94000081110E94000080E090E0892BB3
:1003F00049F080E090E0892B29F00E9400008111F3
:100400000C94000008953FB7F894809125029091D4
:100410002602A0912702B091280226B5A89B05C00C
:100420002F3F19F00196A11DB11D3FBFBA2FA92F73
:10043000982F8827BC01CD01620F711D811D911D70
:1004400042E0660F771F881F991F4A95D1F70895DC
:100450001F920F920FB60F9211240BB60F922F938B
:100460003F934F935F936F937F938F939F93AF933C
:10047000BF93EF93FF938DE292E008DFFF91EF913E
:10048000BF91AF919F918F917F916F915F914F91AC
:100490003F912F910F900BBE0F900FBE0F901F90AA
:1004A00018951F920F920FB60F9211240BB60F9250
:1004B0002F938F939F93EF93FF93E0913D02F091E1
:1004C0003E028081E0914302F091440282FD1DC012
:1004D0009081809146028F5F8F732091470282172F
:1004E00041F0E0914602F0E0E35DFD4F958F80938F
:1004F0004602FF91EF919F918F912F910F900BBE2C
:100500000F900FBE0F901F9018958081F2CF1F9211
:100510000F920FB60F9211242F933F938F939F93B7
:10052000AF93BF938091290290912A02A0912B0250
:10053000B0912C023091240223E0230F2D3758F57F
:100540000196A11DB11D209324028093290290934E
:100550002A02A0932B02B0932C0280912502909145
:100560002602A0912702B09128020196A11DB11D7B
:100570008093250290932602A0932702B09328022D
:10058000BF91AF919F918F913F912F910F900FBE8F
:100590000F901F90189526E8230F0296A11DB11DFC
:1005A000D2CFEDE2F2E01382128288EE93E0A0E077
:1005B000B0E084839583A683B78384E092E091833F
:1005C000808385EC90E09587848784EC90E0978722
:1005D000868780EC90E0918B808B81EC90E0938B10
:1005E000828B82EC90E0958B848B86EC90E0978BED
:1005F000868B118E128E138E148EEAECF2E0168228
:100600001782108611861286138614861586168622
:100610001786108A118A128A138A148A158A0895F5
:10062000789484B5826084BD84B5816084BD85B5CD
:10063000826085BD85B5816085BD80916E008160D9
:1006400080936E001092810080918100826080937F
:100650008100809181008160809381008091800081
:100660008160809380008091B10084608093B100AC
:100670008091B00081608093B00080919100826091
:10068000809391008091910081608093910080918E
:1006900090008160809390008091A100826080939F
:1006A000A1008091A10081608093A1008091A000B1
:1006B00081608093A000809121018260809321015C
:1006C00080912101816080932101809120018160CE
:1006D0008093200180917A00846080937A008091D9
:1006E0007A00826080937A0080917A0081608093A2
:1006F0007A0080917A00806880937A001092C1001D
:1007000010920C0310920D0310920E0310920F031F
:100710001092CC021092CD021092CE021092CF0213
:1007200068EB7BE080E090E00DDD6DDE4B015C016D
:1007300088EEC82E83E0D82EE12CF12C64DE6819F7
:1007400079098A099B09683E734081059105B0F3D8
:1007500021E0C21AD108E108F10888EE880E83E092
:10076000981EA11CB11CC114D104E104F10431F79D
:10077000E0913D02F0913E0282E08083E0913902F7
:10078000F0913A021082E0913B02F0913C0280E14C
:10079000808310924502E0914102F091420286E08E
:1007A0008083E0913F02F0914002808180618083EC
:1007B000E0913F02F0914002808188608083E09167
:1007C0003F02F0914002808180688083E0913F0287
:1007D000F091400280818F7D80832FB7F8948091C3
:1007E000290290912A02A0912B02B0912C022FBFD6
:1007F0008093CC029093CD02A093CE02B093CF020F
:1008000040E150E062E172E08DE292E0CCDC6AE02F
:1008100070E080E090E096DC81E08093E002C3DD50
:10082000FECFEE0FFF1F881F8BBF0790F691E02DC4
:060830001994F894FFCFBB
:10083600000000006801D3000001B40131010F017E
:100846002301564D4450565F317C315F564D44501E
:04085600560A00003E
:00000001FF
