:1000000002C100002EC100002CC100002AC1000066
:1000100028C1000026C1000024C1000022C1000048
:1000200020C100001EC100001CC100001AC1000058
:1000300018C1000016C1000014C1000012C1000068
:1000400010C100005AC500000CC100000AC1000028
:1000500008C1000006C1000004C1000081C4000006
:1000600000C1000047C400001CC40000FAC000002A
:10007000F8C00000F6C00000F4C00000F2C00000AC
:10008000B9C40000EEC00000ECC00000EAC00000EF
:10009000E8C00000E6C00000E4C00000E2C00000CC
:1000A000E0C00000DEC00000DCC00000DAC00000DC
:1000B000D8C00000D6C00000D4C00000D2C00000EC
:1000C000D0C00000CEC00000CCC00000CAC00000FC
:1000D000C8C00000C6C00000C4C00000C2C000000C
:1000E000C0C00000000020002300260029002C00D2
:1000F0002F00320000010000030106010901000089
:100100000A0B02090C0D0E08070304010000000091
:1001100000000000000000000000000000000000DF
:10012000000000000000000000001211100000009C
:1001300000000000000000000000000000000000BF
:100140000000000000002200250028002B002E00E7
:100150003100340002010000050108010B0100001C
:100160002100240027002A002D0030003300010167
:100170000000040107010A01050505050705080837
:100180000808020202020A0A080804040404010121
:100190000101010101010303030303030303040736
:1001A00007070C0C0C0C0C0C0C0C020202020606CD
:1001B0000606060606060B0B0B0B0B0B0B0B0102C0
:1001C0001020200808102040102040800201020169
:1001D0000804020101020408102040808040201021
:1001E000080402018004020180402010080402017A
:1001F00008040201010204081020408001020408E2
:1002000010204080000611241FBECFEFD1E2DEBFD8
:10021000CDBF00E00CBF23E0AEE3B2E001C01D9211
:10022000A734B207E1F712E0A0E0B2E0E6E1F2E1C4
:1002300000E00BBF02C007900D92AE33B107D9F7B3
:1002400011E0C3E0D1E000E005C021970109802F53
:10025000FE01D7D7C230D10780E00807B1F714D527
:10026000D8C7CECE90E0FC01E254FE4F24918858CE
:100270009E4FFC018491882399F090E0880F991F8C
:10028000FC01E25AFE4FA591B491FC01EC5BFE4FDC
:10029000859194918FB7F894EC91E22BEC938FBFFA
:1002A0000895E6E5F2E0A089B18982E08C93A48507
:1002B000B5851C92A685B78580E18C93108EA489A4
:1002C000B58986E08C93A289B3898C9180618C93E7
:1002D000A289B3898C9188608C93A289B3898C910F
:1002E00080688C930288F389E02D80818F7D8083E4
:1002F0000895AF92BF92CF92DF92EF92FF920F9349
:100300001F93CF93DF936C017B018B01040F151FAB
:10031000EB015E01AE18BF08C017D10759F0699113
:10032000D601ED91FC910190F081E02DC601199567
:10033000892B79F7C501DF91CF911F910F91FF9024
:10034000EF90DF90CF90BF90AF900895FC01538D58
:10035000448D252F30E0842F90E0821B930B54179F
:1003600010F0CF96089501970895FC01918D828D2C
:10037000981761F0A28DAE0FBF2FB11D5D968C91C5
:10038000928D9F5F9F73928F90E008958FEF9FEF04
:100390000895FC01918D828D981731F0828DE80FC0
:1003A000F11D858D90E008958FEF9FEF0895FC017A
:1003B000918D228D892F90E0805C9F4F821B910947
:1003C0008F739927089586E592E0F1DF21E0892B6C
:1003D00009F420E0822F0895FC01A48DA80FB92F05
:1003E000B11DA35ABF4F2C91848D90E001968F735D
:1003F0009927848FA689B7892C93A089B1898C917C
:10040000837080648C93938D848D981306C00288CA
:10041000F389E02D80818F7D80830895EF92FF9294
:100420000F931F93CF93DF93EC0181E0888F9B8D17
:100430008C8D98131AC0E889F989808185FF15C0D1
:100440009FB7F894EE89FF896083E889F9898081F4
:100450008370806480839FBF81E090E0DF91CF91C3
:100460001F910F91FF90EF900895F62E0B8D10E0E5
:100470000F5F1F4F0F731127E02E8C8D8E110BC055
:100480000FB607FCFACFE889F989808185FFF5CF9F
:10049000CE01A2DFF2CFEB8DEC0FFD2FF11DE35A61
:1004A000FF4FF0829FB7F8940B8FEA89FB89808118
:1004B0008062D0CFCF93DF93EC01888D8823B1F099
:1004C000AA89BB89E889F9898C9185FD03C080815F
:1004D00086FD0CC00FB607FCF7CF8C9185FFF2CFDD
:1004E000808185FFEDCFCE0177DFEACFDF91CF911D
:1004F000089580E090E0892B21F065DF81110E9452
:10050000000080E090E0892B49F080E090E0892BAA
:1005100029F00E94000081110E94000080E090E01C
:10052000892B49F080E090E0892B29F00E9400009F
:1005300081110E94000080E090E0892B49F080E06A
:1005400090E0892B29F00E94000081110C9400009A
:1005500008958150823108F059C0E82FF0E08827D3
:10056000EC54FD4F8F4F4DC6D402D802C602CC02C8
:10057000D0020603DB02E102E502EB02EF02F30226
:10058000F902FD020603010307030B0380918000BB
:100590008F77809380000895809180008F7DF9CFC0
:1005A00080918000877FF5CF84B58F7784BD0895D3
:1005B00084B58F7DFBCF8091B0008F778093B000A2
:1005C00008958091B0008F7DF9CF809190008F7752
:1005D000809390000895809190008F7DF9CF809155
:1005E0009000877FF5CF8091A0008F778093A00047
:1005F00008958091A0008F7DF9CF8091A000877F22
:10060000F5CF809120018F7780932001089580910C
:1006100020018F7DF9CF80912001877FF5CFCF9387
:10062000DF93282F30E0F901E250FF4F8491F90168
:10063000E254FE4FD491F901E858FE4FC491CC2307
:1006400099F0811186DFEC2FF0E0EE0FFF1FEC51E7
:10065000FF4FA591B491EC91ED2381E090E009F476
:1006600080E0DF91CF91089580E090E0FACF1F9372
:10067000CF93DF93282F30E0F901E250FF4F8491B0
:10068000F901E254FE4FD491F901E858FE4FC491AC
:10069000CC23A1F0162F81115CDFEC2FF0E0EE0FE0
:1006A000FF1FEC5BFE4FA591B4918FB7F894EC91CE
:1006B000111108C0D095DE23DC938FBFDF91CF915D
:1006C0001F910895DE2BF8CF0F931F93CF93DF93E5
:1006D0008C01EB018091390390913A0308171907B7
:1006E000A4F561E087E3C3DF1092450380913B03EB
:1006F00090913C03C817D9077CF561E08DE3B7DF23
:100700001092460381E02091390330913A0320177B
:10071000310709F480E080933D0381E020913B03A1
:1007200030913C032C173D0709F480E080933E0391
:100730001093420300934103D0934403C0934303B7
:10074000DF91CF911F910F91089560E087E38FDFD4
:1007500081E080934503CACF60E08DE388DF81E0CC
:1007600080934603CFCF3FB7F89480914702909192
:100770004802A0914902B0914A0226B5A89B05C043
:100780002F3F19F00196A11DB11D3FBFBA2FA92F10
:10079000982F8827BC01CD01620F711D811D911D0D
:1007A00042E0660F771F881F991F4A95D1F7089579
:1007B0002FB7F894609143027091440280914502F2
:1007C000909146022FBF0895FC0101900020E9F7A7
:1007D0003197AF01481B590BBC0186E592E089CDEA
:1007E0008F929F92AF92BF920F931F93CF93DF93FD
:1007F000CDB7DEB7A1970FB6F894DEBF0FBECDBF61
:1008000019A2423008F44AE08E010F5D1F4F842E7A
:10081000912CB12CA12CA5019401D1D4E62FB901C2
:10082000CA01EA30ECF4E05DD801EE938D01232B90
:10083000242B252B81F790E080E0109711F0CD015B
:10084000C3DFA1960FB6F894DEBF0FBECDBFDF9118
:10085000CF911F910F91BF90AF909F908F9008956F
:10086000E95CE2CFCF92DF92EF92FF92CF93DF93DA
:100870006B017C016DE286E592E0D0DDEC0166273C
:100880007727CB016C197D098E099F094AE0A8DF03
:100890008C0F9D1FDF91CF91FF90EF90DF90CF9055
:1008A00008951F920F920FB60F9211240BB60F925C
:1008B0002F933F934F935F936F937F938F939F9368
:1008C000AF93BF93EF93FF9386E592E085DDFF91B1
:1008D000EF91BF91AF919F918F917F916F915F91B8
:1008E0004F913F912F910F900BBE0F900FBE0F9025
:1008F0001F9018951F920F920FB60F9211240BB6EE
:100900000F922F938F939F93EF93FF93E091660243
:10091000F09167028081E0916C02F0916D0282FD9E
:100920001DC0908180916F028F5F8F732091700244
:10093000821741F0E0916F02F0E0EA5AFD4F958F87
:1009400080936F02FF91EF919F918F912F910F9064
:100950000BBE0F900FBE0F901F9018958081F2CFA5
:100960001F920F920FB60F9211242F933F938F93E4
:100970009F93AF93BF938091430290914402A091C3
:100980004502B09146023091420223E0230F2D37F9
:1009900058F50196A11DB11D209342028093430298
:1009A00090934402A0934502B0934602809147027F
:1009B00090914802A0914902B0914A020196A11D6E
:1009C000B11D8093470290934802A0934902B093CF
:1009D0004A02BF91AF919F918F913F912F910F90BC
:1009E0000FBE0F901F90189526E8230F0296A11DA9
:1009F000B11DD2CF1F920F920FB60F9211240BB6DA
:100A00000F922F933F934F935F936F937F938F93A7
:100A10009F93AF93BF93EF93FF9380913E038823FF
:100A200009F44AC08EE0FBDD892B29F4809146034E
:100A3000882309F441C080910002882309F456C03C
:100A400080913E0290913F02019690933F028093E5
:100A50003E0220913B0330913C034091430350916F
:100A60004403B901641B750BAB0177FF03C05195BB
:100A70004195510984179507D4F010923E03409197
:100A80004603442361F1820F931F90933C038093AC
:100A90003B0310923F0210923E0280914003882354
:100AA00031F010923C0310923B031092400361E03E
:100AB0008CE3DDDD10920002FF91EF91BF91AF91C9
:100AC0009F918F917F916F915F914F913F912F9166
:100AD0000F900BBE0F900FBE0F901F901895281B04
:100AE000390B30933C0320933B03D3CF60E08CE37E
:100AF000BEDD81E080930002DFCF1F920F920FB620
:100B00000F9211240BB60F922F933F934F935F9345
:100B10006F937F938F939F93AF93BF93EF93FF93C5
:100B200080913D03882309F44AC083E078DD019772
:100B300029F080914503882309F441C08091010286
:100B4000882309F456C08091400290914102019699
:100B500090934102809340022091390330913A03EF
:100B60004091410350914203B901641B750BAB01E5
:100B700077FF03C051954195510984179507D4F02B
:100B800010923D0340914503442361F1820F931F6E
:100B900090933A03809339031092410210924002DD
:100BA00080914003882331F010923A031092390368
:100BB0001092400361E086E35ADD10920102FF913A
:100BC000EF91BF91AF919F918F917F916F915F91C5
:100BD0004F913F912F910F900BBE0F900FBE0F9032
:100BE0001F901895281B390B30933A032093390333
:100BF000D3CF60E086E33BDD81E080930102DFCF6D
:100C0000E6E5F2E01382128288EE93E0A0E0B0E025
:100C100084839583A683B78386E092E09183808363
:100C200085EC90E09587848784EC90E097878687B1
:100C300080EC90E0918B808B81EC90E0938B828BA9
:100C400082EC90E0958B848B86EC90E0978B868B82
:100C5000118E128E138E148EE3EFF2E0168217823D
:100C600010861186128613861486158616861786B8
:100C7000108A118A128A138A148A158AE9E3F3E02A
:100C80001482158216820895789484B5826084BD9A
:100C900084B5816084BD85B5826085BD85B5816080
:100CA00085BD80916E00816080936E0010928100FE
:100CB00080918100826080938100809181008160B9
:100CC000809381008091800081608093800080917A
:100CD000B10084608093B1008091B0008160809306
:100CE000B00080919100826080939100809191008A
:100CF000816080939100809190008160809390004A
:100D00008091A10082608093A1008091A100816008
:100D10008093A1008091A00081608093A0008091C9
:100D20002101826080932101809121018160809363
:100D300021018091200181608093200180917A00BF
:100D4000846080937A0080917A00826080937A0038
:100D500080917A00816080937A0080917A00806827
:100D600080937A001092C1001092350310923603DE
:100D700010923703109238031092F5021092F60287
:100D80001092F7021092F80213DD6B017C014B0107
:100D90005C0128EB820E2BE0921EA11CB11C08DD29
:100DA0006C157D058E059F0528F086169706A8060A
:100DB000B906A8F7D8DC4B015C0198EEC92E93E088
:100DC000D92EE12CF12CCFDC681979098A099B090D
:100DD000683E734081059105B0F331E0C31AD10834
:100DE000E108F10848EE840E43E0941EA11CB11CFA
:100DF000C114D104E104F10431F753DAD9DC609372
:100E0000F5027093F6028093F7029093F80284E162
:100E100092E0DADCCDDC6B017C014B015C018AE005
:100E2000880E911CA11CB11CC3DC6C157D058E05C0
:100E30009F0528F086169706A806B906A8F781E050
:100E40008093090380934B0280934C0280934D0260
:100E500028DA85E292E0B8DC87E292E0B5DC83E054
:100E600001DA61E083E003DC8EE0FCD961E08EE032
:100E7000FEDB10928000DAE0D093810010928200B5
:100E8000109285001092840008EC10E01093890005
:100E900000938800C2E0C0936F0086E3E3D987E344
:100EA000E1D986E2DFD960E086E2E1DB10929000D2
:100EB000D09391001092920010929500109294009D
:100EC0001093990000939800C09371008CE3CAD9E5
:100ED0008DE3C8D988E3C6D960E088E3C8DB8EE03B
:100EE000E9E3F3E0DF011D928A95E9F770E060E045
:100EF00090E080E0E9DB84EFC82EDD24D394E12C80
:100F0000F12CD1E00BE91FE053DC672B682B692B38
:100F100009F4CCC04DDC8090520290905302A09016
:100F20005402B0905502681579058A059B0508F4AE
:100F3000F6C08090520290905302A0905402B0905C
:100F400055029B01AC01281939094A095B0949017D
:100F50005A013AEF83169104A104B10408F4ADC01C
:100F600060935202709353028093540290935502FF
:100F7000C0920103D0920203E0920303F0920403B3
:100F800010920503109206031092070310920803B3
:100F90008091F9029091FA02A091FB02B091FC02BB
:100FA0008093FD029093FE02A093FF02B093000392
:100FB000FFDB6093F9027093FA028093FB02909337
:100FC000FC02F6DB6093F5027093F6028093F70261
:100FD0009093F802EDDB4B015C018AE292E0F4DBD6
:100FE0004AE061E070E080E090E0FADB81E392E0CB
:100FF000EBDB4AE0C501B401F3DB83E392E0E4DB21
:101000008091F9029091FA02A091FB02B091FC024A
:10101000A5019401281B390B4A0B5B0BCA01B901CE
:101020004AE0DEDB83E392E0CFDB6091F90270916E
:10103000FA028091FB029091FC028090FD02909058
:10104000FE02A090FF02B0900003681979098A0996
:101050009B094AE0C5DB85E392E0B6DBA9DB4AE009
:10106000BFDB87E392E0B0DB87E292E0ADDBA0DBA1
:101070002B013C015C014B0135E0830E911CA11C4E
:10108000B11C96DB641575058605970528F0861654
:101090009706A806B906A8F78BDB6093F902709350
:1010A000FA028093FB029093FC0207C081DB62305E
:1010B00071058105910508F02DCF86E592E077D97D
:1010C000892B41F186E592E050D9C82F60915002FA
:1010D00070915102072E000C880B990B97FF28C0C6
:1010E000C1DB87E292E070DB60914E0270914F02AB
:1010F000072E000C880B990B97FF1DC0B3DB87E20E
:1011000092E062DBC23709F44AC0C4F4C13649F147
:10111000C436B9F1C8010197F1F7EBD9F5CE609368
:10112000520270935302809354029093550201CF60
:101130004AE056DBD6CF4AE053DBE1CFC33741F17B
:10114000C73741F760914E0270914F0264527A4F57
:1011500070934F0260934E028091390390913A034D
:101160000EC080915002909151028C5D95409093F9
:1011700051028093500260913B0370913C03A4DACA
:10118000C9CF809150029091510284529A4FEFCF73
:1011900060914E0270914F026C5D7540D9CF1092F4
:1011A00051021092500210924F0210924E0270E0C3
:1011B00060E090E080E088DAD0934003ABCFA1E21A
:1011C0001A2EAA1BBB1BFD010DC0AA1FBB1FEE1FC1
:1011D000FF1FA217B307E407F50720F0A21BB30B0C
:1011E000E40BF50B661F771F881F991F1A9469F788
:1011F00060957095809590959B01AC01BD01CF01E4
:101200000895EE0FFF1F881F8BBF0790F691E02D0A
:061210001994F894FFCFD1
:101216000101000000000E027901A6015A02D70161
:10122600B501C901564D4450565F317C315F564D6C
:101236004450560A0073000D0A00564D4450455F4F
:0E124600003A323A007C005F564D445045009D
:00000001FF
