:1000000002C100002EC100002CC100002AC1000066
:1000100028C1000026C1000024C1000022C1000048
:1000200020C100001EC100001CC100001AC1000058
:1000300018C1000016C1000014C1000012C1000068
:1000400010C1000024C500000CC100000AC100005E
:1000500008C1000006C1000004C100004BC400003C
:1000600000C1000011C40000E6C30000FAC0000097
:10007000F8C00000F6C00000F4C00000F2C00000AC
:1000800083C40000EEC00000ECC00000EAC0000025
:10009000E8C00000E6C00000E4C00000E2C00000CC
:1000A000E0C00000DEC00000DCC00000DAC00000DC
:1000B000D8C00000D6C00000D4C00000D2C00000EC
:1000C000D0C00000CEC00000CCC00000CAC00000FC
:1000D000C8C00000C6C00000C4C00000C2C000000C
:1000E000C0C00000000020002300260029002C00D2
:1000F0002F00320000010000030106010901000089
:100100000A0B02090C0D0E08070304010000000091
:1001100000000000000000000000000000000000DF
:10012000000000000000000000001211100000009C
:1001300000000000000000000000000000000000BF
:100140000000000000002200250028002B002E00E7
:100150003100340002010000050108010B0100001C
:100160002100240027002A002D0030003300010167
:100170000000040107010A01050505050705080837
:100180000808020202020A0A080804040404010121
:100190000101010101010303030303030303040736
:1001A00007070C0C0C0C0C0C0C0C020202020606CD
:1001B0000606060606060B0B0B0B0B0B0B0B0102C0
:1001C0001020200808102040102040800201020169
:1001D0000804020101020408102040808040201021
:1001E000080402018004020180402010080402017A
:1001F00008040201010204081020408001020408E2
:1002000010204080CA0511241FBECFEFD1E2DEBF0F
:10021000CDBF00E00CBF25E0A6E2B2E001C01D9218
:10022000A131B207E1F712E0A0E0B2E0E0E2F0E1D4
:1002300000E00BBF02C007900D92A632B107D9F7BC
:1002400011E0C3E0D1E000E005C021970109802F53
:10025000FE01DCD6C230D10780E00807B1F7DED45A
:10026000DDC6CECE90E0FC01E254FE4F24918858CA
:100270009E4FFC018491882399F090E0880F991F8C
:10028000FC01E25AFE4FA591B491FC01EC5BFE4FDC
:10029000859194918FB7F894EC91E22BEC938FBFFA
:1002A0000895E0E2F4E0A089B18982E08C93A4850E
:1002B000B5851C92A685B78580E18C93108EA489A4
:1002C000B58986E08C93A289B3898C9180618C93E7
:1002D000A289B3898C9188608C93A289B3898C910F
:1002E00080688C930288F389E02D80818F7D8083E4
:1002F0000895AF92BF92CF92DF92EF92FF920F9349
:100300001F93CF93DF936C017B018B01040F151FAB
:10031000EB015E01AE18BF08C017D10759F0699113
:10032000D601ED91FC910190F081E02DC601199567
:10033000892B79F7C501DF91CF911F910F91FF9024
:10034000EF90DF90CF90BF90AF900895FC01538D58
:10035000448D252F30E0842F90E0821B930B54179F
:1003600010F0CF96089501970895FC01918D828D2C
:10037000981761F0A28DAE0FBF2FB11D5D968C91C5
:10038000928D9F5F9F73928F90E008958FEF9FEF04
:100390000895FC01918D828D981731F0828DE80FC0
:1003A000F11D858D90E008958FEF9FEF0895FC017A
:1003B000918D228D892F90E0805C9F4F821B910947
:1003C0008F739927089580E294E0F1DF21E0892B73
:1003D00009F420E0822F0895FC01A48DA80FB92F05
:1003E000B11DA35ABF4F2C91848D90E001968F735D
:1003F0009927848FA689B7892C93A089B1898C917C
:10040000837080648C93938D848D981306C00288CA
:10041000F389E02D80818F7D80830895EF92FF9294
:100420000F931F93CF93DF93EC0181E0888F9B8D17
:100430008C8D98131AC0E889F989808185FF15C0D1
:100440009FB7F894EE89FF896083E889F9898081F4
:100450008370806480839FBF81E090E0DF91CF91C3
:100460001F910F91FF90EF900895F62E0B8D10E0E5
:100470000F5F1F4F0F731127E02E8C8D8E110BC055
:100480000FB607FCFACFE889F989808185FFF5CF9F
:10049000CE01A2DFF2CFEB8DEC0FFD2FF11DE35A61
:1004A000FF4FF0829FB7F8940B8FEA89FB89808118
:1004B0008062D0CFCF93DF93EC01888D8823B1F099
:1004C000AA89BB89E889F9898C9185FD03C080815F
:1004D00086FD0CC00FB607FCF7CF8C9185FFF2CFDD
:1004E000808185FFEDCFCE0177DFEACFDF91CF911D
:1004F000089580E090E0892B21F065DF81110E9452
:10050000000080E090E0892B49F080E090E0892BAA
:1005100029F00E94000081110E94000080E090E01C
:10052000892B49F080E090E0892B29F00E9400009F
:1005300081110E94000080E090E0892B49F080E06A
:1005400090E0892B29F00E94000081110C9400009A
:1005500008958150823108F059C0E82FF0E08827D3
:10056000EC54FD4F8F4F52C5D402D802C602CC02C4
:10057000D0020603DB02E102E502EB02EF02F30226
:10058000F902FD020603010307030B0380918000BB
:100590008F77809380000895809180008F7DF9CFC0
:1005A00080918000877FF5CF84B58F7784BD0895D3
:1005B00084B58F7DFBCF8091B0008F778093B000A2
:1005C00008958091B0008F7DF9CF809190008F7752
:1005D000809390000895809190008F7DF9CF809155
:1005E0009000877FF5CF8091A0008F778093A00047
:1005F00008958091A0008F7DF9CF8091A000877F22
:10060000F5CF809120018F7780932001089580910C
:1006100020018F7DF9CF80912001877FF5CFCF9387
:10062000DF93282F30E0F901E250FF4F8491F90168
:10063000E254FE4FD491F901E858FE4FC491CC2307
:1006400099F0811186DFEC2FF0E0EE0FFF1FEC51E7
:10065000FF4FA591B491EC91ED2381E090E009F476
:1006600080E0DF91CF91089580E090E0FACF1F9372
:10067000CF93DF93282F30E0F901E250FF4F8491B0
:10068000F901E254FE4FD491F901E858FE4FC491AC
:10069000CC23A1F0162F81115CDFEC2FF0E0EE0FE0
:1006A000FF1FEC5BFE4FA591B4918FB7F894EC91CE
:1006B000111108C0D095DE23DC938FBFDF91CF915D
:1006C0001F910895DE2BF8CF3FB7F89480912F0249
:1006D00090913002A0913102B091320226B5A89BD0
:1006E00005C02F3F19F00196A11DB11D3FBFBA2FC4
:1006F000A92F982F8827BC01CD01620F711D811D84
:10070000911D42E0660F771F881F991F4A95D1F708
:1007100008952FB7F89460912B0270912C0280916C
:100720002D0290912E022FBF08950F931F93F1DF9A
:10073000609328047093290480932A0490932B04D7
:1007400080E294E026DE97FF1CC0E3DF00912804DE
:100750001091290420912A0430912B04601B710B05
:10076000820B930B00912404109125042091260400
:1007700030912704601771078207930708F38FEF02
:100780009FEF1F910F910895CF92DF92EF92FF920A
:10079000CF93CBDFFC0197FD4AC08D32910521F04C
:1007A000C0970A9708F03DC0C12CD12C7601C0E05B
:1007B000E130F105C9F0ED32F105B9F1CF01C09793
:1007C0000A9790F4AAE0B0E0A701960106D46F0161
:1007D000FF0FEE08FF08C60ED71EE81EF91E80E3C5
:1007E000C81AD108E108F10880E294E0BEDD9DDF7F
:1007F000FC01C0970A97E0F2E130F105C9F2CC2381
:1008000041F0F094E094D094C094C11CD11CE11C40
:10081000F11CC701B601CF91FF90EF90DF90CF9010
:10082000089580E294E0A1DDB4CFC1E0DDCFC12C1A
:10083000D12C7601EECF1F920F920FB60F9211249A
:100840000BB60F922F933F934F935F936F937F93CA
:100850008F939F93AF93BF93EF93FF9380E294E0C6
:10086000BBDDFF91EF91BF91AF919F918F917F91F0
:100870006F915F914F913F912F910F900BBE0F9011
:100880000FBE0F901F9018951F920F920FB60F92E8
:1008900011240BB60F922F938F939F93EF93FF9397
:1008A000E0913004F09131048081E0913604F091C0
:1008B000370482FD1DC09081809139048F5F8F7352
:1008C00020913A04821741F0E0913904F0E0E05EB3
:1008D000FB4F958F80933904FF91EF919F918F91FA
:1008E0002F910F900BBE0F900FBE0F901F90189579
:1008F0008081F2CF1F920F920FB60F9211242F9387
:100900003F938F939F93AF93BF9380912B029091CE
:100910002C02A0912D02B0912E0230912A0223E0E8
:10092000230F2D3758F50196A11DB11D20932A02E2
:1009300080932B0290932C02A0932D02B0932E0251
:1009400080912F0290913002A0913102B091320239
:100950000196A11DB11D80932F0290933002A093A8
:100960003102B0933202BF91AF919F918F913F912D
:100970002F910F900FBE0F901F90189526E8230F10
:100980000296A11DB11DD2CF1F920F920FB60F92EA
:1009900011240BB60F922F933F934F935F936F9356
:1009A0007F938F939F93AF93BF93EF93FF93809128
:1009B0000805882309F44AC08EE031DE892B29F42A
:1009C00080911005882309F441C08091000288239A
:1009D00009F456C0809126029091270201969093C7
:1009E000270280932602209105053091060540914B
:1009F0000D0550910E05B901641B750BAB0177FF16
:100A000003C051954195510984179507D4F0109270
:100A1000080540911005442361F1820F931F9093C4
:100A200006058093050510922702109226028091F8
:100A30000A05882331F010920605109205051092E0
:100A40000A0561E08CE313DE10920002FF91EF9142
:100A5000BF91AF919F918F917F916F915F914F91D6
:100A60003F912F910F900BBE0F900FBE0F901F90D4
:100A70001895281B390B3093060520930505D3CF15
:100A800060E08CE3F4DD81E080930002DFCF1F9211
:100A90000F920FB60F9211240BB60F922F933F9324
:100AA0004F935F936F937F938F939F93AF93BF9376
:100AB000EF93FF9380910705882309F44AC083E0F0
:100AC000AEDD019729F080910F05882309F441C01C
:100AD00080910102882309F456C0809128029091E8
:100AE0002902019690932902809328022091030500
:100AF0003091040540910B0550910C05B901641B20
:100B0000750BAB0177FF03C05195419551098417CF
:100B10009507D4F01092070540910F05442361F129
:100B2000820F931F9093040580930305109229026E
:100B30001092280280910A05882331F01092040552
:100B40001092030510920A0561E086E390DD109291
:100B50000102FF91EF91BF91AF919F918F917F9192
:100B60006F915F914F913F912F910F900BBE0F901E
:100B70000FBE0F901F901895281B390B309304055A
:100B800020930305D3CF60E086E371DD81E080939D
:100B90000102DFCFE0E2F4E01382128288EE93E0FC
:100BA000A0E0B0E084839583A683B78386E092E0DB
:100BB0009183808385EC90E09587848784EC90E036
:100BC0009787868780EC90E0918B808B81EC90E01A
:100BD000938B828B82EC90E0958B848B86EC90E0FB
:100BE000978B868B118E128E138E148EEDEBF4E0A4
:100BF0001682178210861186128613861486158631
:100C000016861786108A118A128A138A148A158A00
:100C1000E3E0F5E01482158216820895789484B595
:100C2000826084BD84B5816084BD85B5826085BDE8
:100C300085B5816085BD80916E00816080936E0076
:100C40001092810080918100826080938100809168
:100C50008100816080938100809180008160809319
:100C600080008091B10084608093B1008091B000D9
:100C700081608093B00080919100826080939100A8
:100C800080919100816080939100809190008160BB
:100C9000809390008091A10082608093A100809158
:100CA000A10081608093A1008091A0008160809369
:100CB000A000809121018260809321018091210117
:100CC00081608093210180912001816080932001C7
:100CD00080917A00846080937A0080917A008260AB
:100CE00080937A0080917A00816080937A0080916D
:100CF0007A00806880937A001092C1001092FF04FD
:100D00001092000510920105109202051092BF0486
:100D10001092C0041092C1041092C204FADC6B015C
:100D20007C014B015C0128EB820E2BE0921EA11C82
:100D3000B11CEFDC6C157D058E059F0528F086162D
:100D40009706A806B906A8F7BFDC4B015C0138EE90
:100D5000C32E33E0D32EE12CF12CB6DC68197909CF
:100D60008A099B09683E734081059105B0F361E0F3
:100D7000C61AD108E108F10888EE880E83E0981EB3
:100D8000A11CB11CC114D104E104F10431F789DACA
:100D9000C0DC6093BF047093C0048093C10490933F
:100DA000C20440E150E064E172E080E294E0A1DA44
:100DB000B0DC6B017C014B015C01BAE08B0E911C35
:100DC000A11CB11CA6DC6C157D058E059F0528F0C5
:100DD00086169706A806B906A8F781E08093D30483
:100DE0008093330280933402809335025ADA83E091
:100DF00039DA61E083E03BDC8EE034DA61E08EE0FA
:100E000036DC10928000DAE0D093810010928200EC
:100E1000109285001092840008EC10E01093890075
:100E200000938800C2E0C0936F0086E31BDA87E37B
:100E300019DA86E217DA60E086E219DC1092900097
:100E4000D09391001092920010929500109294000D
:100E50001093990000939800C09371008CE302DA1C
:100E60008DE300DA88E3FED960E088E300DC46E346
:100E700052E088E59BE1FA0120EA3FE0918380831C
:100E800033832283349624523A4F243160E5360767
:100E9000A9F7445D5F4F84529A4F8C3CABE59A07AB
:100EA00051F78EE0E3E0F5E0DF011D928A95E9F766
:100EB00095E0C92ED12CE12CF12C2BE0A22EBB24E5
:100EC000B39480E294E073DA892B71F080911A0474
:100ED00090911B04019690931B0480931A04813017
:100EE000910521F0029781F004DBEBCFC09224043E
:100EF000D0922504E0922604F092270445DC7093FA
:100F00001D0460931C04F0CFC0922404D0922504E9
:100F1000E0922604F092270437DC70931F0460935C
:100F20001E0410921B0410921A0420911C0430918C
:100F30001D04A29EF001A39EF00D1124E60FF71FE1
:100F4000EE0FFF1FEE0FFF1FEA5CFD4FC281D38142
:100F500000811181809103059091040508171907FC
:100F600084F561E087E383DB10920F05809105052E
:100F700090910605C817D90754F561E08DE377DB3A
:100F80001092100581E0209103053091040520178F
:100F9000310709F480E08093070581E02091050581
:100FA000309106052C173D0709F480E08093080571
:100FB00010930C0500930B05D0930E05C0930D05FF
:100FC00093CF60E087E353DBB0920F05CFCF60E0B3
:100FD0008DE34DDBB0921005D5CF09D0A59F900DC4
:100FE000B49F900DA49F800D911D11240895A29F80
:100FF000B001B39FC001A39F700D811D1124911DED
:10100000B29F700D811D1124911D0895EE0FFF1FD9
:10101000881F8BBF0790F691E02D1994F894FFCFAD
:101020000101000000000E027901A6015A02D70159
:10103000B501C901564D4450565F317C315F564D64
:061040004450560A0000B6
:00000001FF
