:1000000002C100002EC100002CC100002AC1000066
:1000100028C1000026C1000024C1000022C1000048
:1000200020C100001EC100001CC100001AC1000058
:1000300018C1000016C1000014C1000012C1000068
:1000400010C100002EC500000CC100000AC1000054
:1000500008C1000006C1000004C100004BC400003C
:1000600000C1000011C40000E6C30000FAC0000097
:10007000F8C00000F6C00000F4C00000F2C00000AC
:1000800083C40000EEC00000ECC00000EAC0000025
:10009000E8C00000E6C00000E4C00000E2C00000CC
:1000A000E0C00000DEC00000DCC00000DAC00000DC
:1000B000D8C00000D6C00000D4C00000D2C00000EC
:1000C000D0C00000CEC00000CCC00000CAC00000FC
:1000D000C8C00000C6C00000C4C00000C2C000000C
:1000E000C0C00000000020002300260029002C00D2
:1000F0002F00320000010000030106010901000089
:100100000A0B02090C0D0E08070304010000000091
:1001100000000000000000000000000000000000DF
:10012000000000000000000000001211100000009C
:1001300000000000000000000000000000000000BF
:100140000000000000002200250028002B002E00E7
:100150003100340002010000050108010B0100001C
:100160002100240027002A002D0030003300010167
:100170000000040107010A01050505050705080837
:100180000808020202020A0A080804040404010121
:100190000101010101010303030303030303040736
:1001A00007070C0C0C0C0C0C0C0C020202020606CD
:1001B0000606060606060B0B0B0B0B0B0B0B0102C0
:1001C0001020200808102040102040800201020169
:1001D0000804020101020408102040808040201021
:1001E000080402018004020180402010080402017A
:1001F00008040201010204081020408001020408E2
:1002000010204080820611241FBECFEFD1E2DEBF56
:10021000CDBF00E00CBF25E0A6E2B2E001C01D9218
:10022000A531B207E1F712E0A0E0B2E0EAEEF1E1B9
:1002300000E00BBF02C007900D92A632B107D9F7BC
:1002400011E0C3E0D1E000E005C021970109802F53
:10025000FE01C1D7C230D10780E00807B1F799D5B8
:10026000C2C7CECE90E0FC01E254FE4F24918858E4
:100270009E4FFC018491882399F090E0880F991F8C
:10028000FC01E25AFE4FA591B491FC01EC5BFE4FDC
:10029000859194918FB7F894EC91E22BEC938FBFFA
:1002A0000895E2E2F4E0A089B18982E08C93A4850C
:1002B000B5851C92A685B78580E18C93108EA489A4
:1002C000B58986E08C93A289B3898C9180618C93E7
:1002D000A289B3898C9188608C93A289B3898C910F
:1002E00080688C930288F389E02D80818F7D8083E4
:1002F0000895AF92BF92CF92DF92EF92FF920F9349
:100300001F93CF93DF936C017B018B01040F151FAB
:10031000EB015E01AE18BF08C017D10759F0699113
:10032000D601ED91FC910190F081E02DC601199567
:10033000892B79F7C501DF91CF911F910F91FF9024
:10034000EF90DF90CF90BF90AF900895FC01538D58
:10035000448D252F30E0842F90E0821B930B54179F
:1003600010F0CF96089501970895FC01918D828D2C
:10037000981761F0A28DAE0FBF2FB11D5D968C91C5
:10038000928D9F5F9F73928F90E008958FEF9FEF04
:100390000895FC01918D828D981731F0828DE80FC0
:1003A000F11D858D90E008958FEF9FEF0895FC017A
:1003B000918D228D892F90E0805C9F4F821B910947
:1003C0008F739927089582E294E0F1DF21E0892B71
:1003D00009F420E0822F0895FC01A48DA80FB92F05
:1003E000B11DA35ABF4F2C91848D90E001968F735D
:1003F0009927848FA689B7892C93A089B1898C917C
:10040000837080648C93938D848D981306C00288CA
:10041000F389E02D80818F7D80830895EF92FF9294
:100420000F931F93CF93DF93EC0181E0888F9B8D17
:100430008C8D98131AC0E889F989808185FF15C0D1
:100440009FB7F894EE89FF896083E889F9898081F4
:100450008370806480839FBF81E090E0DF91CF91C3
:100460001F910F91FF90EF900895F62E0B8D10E0E5
:100470000F5F1F4F0F731127E02E8C8D8E110BC055
:100480000FB607FCFACFE889F989808185FFF5CF9F
:10049000CE01A2DFF2CFEB8DEC0FFD2FF11DE35A61
:1004A000FF4FF0829FB7F8940B8FEA89FB89808118
:1004B0008062D0CFCF93DF93EC01888D8823B1F099
:1004C000AA89BB89E889F9898C9185FD03C080815F
:1004D00086FD0CC00FB607FCF7CF8C9185FFF2CFDD
:1004E000808185FFEDCFCE0177DFEACFDF91CF911D
:1004F000089580E090E0892B21F065DF81110E9452
:10050000000080E090E0892B49F080E090E0892BAA
:1005100029F00E94000081110E94000080E090E01C
:10052000892B49F080E090E0892B29F00E9400009F
:1005300081110E94000080E090E0892B49F080E06A
:1005400090E0892B29F00E94000081110C9400009A
:1005500008958150823108F059C0E82FF0E08827D3
:10056000EC54FD4F8F4F37C6D402D802C602CC02DE
:10057000D0020603DB02E102E502EB02EF02F30226
:10058000F902FD020603010307030B0380918000BB
:100590008F77809380000895809180008F7DF9CFC0
:1005A00080918000877FF5CF84B58F7784BD0895D3
:1005B00084B58F7DFBCF8091B0008F778093B000A2
:1005C00008958091B0008F7DF9CF809190008F7752
:1005D000809390000895809190008F7DF9CF809155
:1005E0009000877FF5CF8091A0008F778093A00047
:1005F00008958091A0008F7DF9CF8091A000877F22
:10060000F5CF809120018F7780932001089580910C
:1006100020018F7DF9CF80912001877FF5CFCF9387
:10062000DF93282F30E0F901E250FF4F8491F90168
:10063000E254FE4FD491F901E858FE4FC491CC2307
:1006400099F0811186DFEC2FF0E0EE0FFF1FEC51E7
:10065000FF4FA591B491EC91ED2381E090E009F476
:1006600080E0DF91CF91089580E090E0FACF1F9372
:10067000CF93DF93282F30E0F901E250FF4F8491B0
:10068000F901E254FE4FD491F901E858FE4FC491AC
:10069000CC23A1F0162F81115CDFEC2FF0E0EE0FE0
:1006A000FF1FEC5BFE4FA591B4918FB7F894EC91CE
:1006B000111108C0D095DE23DC938FBFDF91CF915D
:1006C0001F910895DE2BF8CF3FB7F8948091310247
:1006D00090913202A0913302B091340226B5A89BCA
:1006E00005C02F3F19F00196A11DB11D3FBFBA2FC4
:1006F000A92F982F8827BC01CD01620F711D811D84
:10070000911D42E0660F771F881F991F4A95D1F708
:1007100008952FB7F89460912D0270912E02809168
:100720002F02909130022FBF08950F931F93F1DF96
:1007300060932A0470932B0480932C0490932D04CF
:1007400082E294E026DE97FF1CC0E3DF00912A04DA
:1007500010912B0420912C0430912D04601B710BFF
:10076000820B930B009126041091270420912804FA
:1007700030912904601771078207930708F38FEF00
:100780009FEF1F910F910895CF92DF92EF92FF920A
:10079000CF93CBDFFC0197FD4AC08D32910521F04C
:1007A000C0970A9708F03DC0C12CD12C7601C0E05B
:1007B000E130F105C9F0ED32F105B9F1CF01C09793
:1007C0000A9790F4AAE0B0E0A7019601EBD46F017C
:1007D000FF0FEE08FF08C60ED71EE81EF91E80E3C5
:1007E000C81AD108E108F10882E294E0BEDD9DDF7D
:1007F000FC01C0970A97E0F2E130F105C9F2CC2381
:1008000041F0F094E094D094C094C11CD11CE11C40
:10081000F11CC701B601CF91FF90EF90DF90CF9010
:10082000089582E294E0A1DDB4CFC1E0DDCFC12C18
:10083000D12C7601EECF1F920F920FB60F9211249A
:100840000BB60F922F933F934F935F936F937F93CA
:100850008F939F93AF93BF93EF93FF9382E294E0C4
:10086000BBDDFF91EF91BF91AF919F918F917F91F0
:100870006F915F914F913F912F910F900BBE0F9011
:100880000FBE0F901F9018951F920F920FB60F92E8
:1008900011240BB60F922F938F939F93EF93FF9397
:1008A000E0913204F09133048081E0913804F091BA
:1008B000390482FD1DC0908180913B048F5F8F734E
:1008C00020913C04821741F0E0913B04F0E0EE5DA2
:1008D000FB4F958F80933B04FF91EF919F918F91F8
:1008E0002F910F900BBE0F900FBE0F901F90189579
:1008F0008081F2CF1F920F920FB60F9211242F9387
:100900003F938F939F93AF93BF9380912D029091CC
:100910002E02A0912F02B091300230912C0223E0E0
:10092000230F2D3758F50196A11DB11D20932C02E0
:1009300080932D0290932E02A0932F02B093300249
:100940008091310290913202A0913302B091340231
:100950000196A11DB11D8093310290933202A093A4
:100960003302B0933402BF91AF919F918F913F9129
:100970002F910F900FBE0F901F90189526E8230F10
:100980000296A11DB11DD2CF1F920F920FB60F92EA
:1009900011240BB60F922F933F934F935F936F9356
:1009A0007F938F939F93AF93BF93EF93FF93809128
:1009B0000A05882309F454C08EE031DE892B29F41E
:1009C00080911405882309F44BC010921205809180
:1009D0000102882309F45EC08091280290912902C7
:1009E0000196909329028093280220910705309167
:1009F000080540910F0550911005B901641B750B56
:100A0000AB0177FF03C051954195510984179507B4
:100A100014F110920A05409114054423A1F1820FAC
:100A2000931F909308058093070510922902109256
:100A3000280280910C05882331F01092080510924D
:100A4000070510920C0581E0809312059091110525
:100A5000911180930B0561E08CE309DE1092010295
:100A6000FF91EF91BF91AF919F918F917F916F9186
:100A70005F914F913F912F910F900BBE0F900FBE42
:100A80000F901F901895281B390B30930805209361
:100A90000705CBCF60E08CE3EADD81E080930102C3
:100AA000DFCF1F920F920FB60F9211240BB60F9249
:100AB0002F933F934F935F936F937F938F939F9366
:100AC000AF93BF93CF93DF93EF93FF93809109058B
:100AD000882309F455C083E0A2DD019729F08091B5
:100AE0001305882309F44CC010921105809102026D
:100AF000882309F469C080912A0290912B02019603
:100B000090932B0280932A022091050530910605CF
:100B100040910D0550910E05B901641B750BAB0199
:100B200077FF03C0519541955109841795071CF132
:100B30001092090540911305442309F43EC0820F29
:100B4000931F909306058093050510922B02109237
:100B50002A0280910C05882331F01092060510922C
:100B6000050510920C0581E0809311059091120506
:100B7000911180930B0561E086E379DD109202020A
:100B800080910B05882309F491C08091000288238D
:100B900009F4ABC0C0912602D09127022196D093D0
:100BA0002702C0932602C130D105A9F460E080E39A
:100BB0005EDD61E08EE25BDD12C0281B390B3093F5
:100BC000060520930505C1CF60E086E350DD81E096
:100BD00080930202D5CFC03A7FE0D70754F3CE010D
:100BE000805A9F408838934108F052C0CD3C60E164
:100BF000D60764F460E087E33ADD60E08DE337DD3B
:100C000061E086E334DD61E08CE331DDCE018D5CB3
:100C100090418C32914030F461E087E328DD61E05F
:100C200086E325DDCE01895F91418835924030F41D
:100C300061E08DE31CDD61E08CE319DDCE018155BF
:100C400094418835924030F460E087E310DD61E044
:100C500086E30DDDCE01895A96418835924030F405
:100C600060E08DE304DD61E08CE301DDCE018150C5
:100C700099418C32914060F461E087E3F8DC61E0F7
:100C80008DE3F5DC61E086E3F2DC61E08CE3EFDC30
:100C9000CE0188529342803A9F40E8F461E080E3BD
:100CA000E6DC61E08EE2E3DC10920002FF91EF915E
:100CB000DF91CF91BF91AF919F918F917F916F9174
:100CC0005F914F913F912F910F900BBE0F900FBEF0
:100CD0000F901F901895C83CD24334F310920B0527
:100CE0001092270210922602DFCF60E08EE2BFDC76
:100CF00060E086E3BCDC60E08CE3B9DC81E08093FB
:100D00000002D4CFE2E2F4E01382128288EE93E094
:100D1000A0E0B0E084839583A683B78387E092E068
:100D20009183808385EC90E09587848784EC90E0C4
:100D30009787868780EC90E0918B808B81EC90E0A8
:100D4000938B828B82EC90E0958B848B86EC90E089
:100D5000978B868B118E128E138E148EEFEBF4E030
:100D600016821782108611861286138614861586BF
:100D700016861786108A118A128A138A148A158A8F
:100D8000E5E0F5E014821582168281E0848785878C
:100D90000895CF93DF93CDB7DEB760970FB6F89481
:100DA000DEBF0FBECDBF789484B5826084BD84B5AC
:100DB000816084BD85B5826085BD85B5816085BD56
:100DC00080916E00816080936E001092810080910E
:100DD0008100826080938100809181008160809396
:100DE0008100809180008160809380008091B100BB
:100DF00084608093B1008091B00081608093B000E6
:100E00008091910082608093910080919100816037
:100E100080939100809190008160809390008091F8
:100E2000A10082608093A1008091A10081608093E5
:100E3000A1008091A00081608093A0008091210199
:100E40008260809321018091210181608093210142
:100E50008091200181608093200180917A008460DC
:100E600080937A0080917A00826080937A008091EA
:100E70007A00816080937A0080917A008068809304
:100E80007A001092C1001092010510920205109292
:100E90000305109204051092C1041092C20410922E
:100EA000C3041092C40435DC6B017C014B015C016E
:100EB00028EB820E2BE0921EA11CB11C2ADC6C15C3
:100EC0007D058E059F0528F086169706A806B906AB
:100ED000A8F7FADB4B015C0148EEC42E43E0D42EA8
:100EE000E12CF12CF1DB681979098A099B09683E2C
:100EF000734081059105B0F361E0C61AD108E1089D
:100F0000F10888EE880E83E0981EA11CB11CC11464
:100F1000D104E104F10431F7C4D9FBDB6093C104CF
:100F20007093C2048093C3049093C40440E150E0E2
:100F300065E172E082E294E0DCD9EBDB6B017C01DD
:100F40004B015C01BAE08B0E911CA11CB11CE1DBD2
:100F50006C157D058E059F0528F086169706A80658
:100F6000B906A8F781E08093D50480933502809379
:100F700036028093370295D983E074D961E083E02B
:100F800076DB8EE06FD961E08EE071DB109280003D
:100F90000AE0009381001092820010928500109266
:100FA000840038ECE32EF12CF0928900E092880066
:100FB00012E010936F0086E355D987E353D986E298
:100FC00051D960E086E253DB1092900000939100CB
:100FD000109292001092950010929400F092990055
:100FE000E0929800109371008CE33CD98DE33AD9DC
:100FF00088E338D960E088E33ADB8EE233D980E3D6
:1010000031D98EE32FD960E08EE331DB48E352E043
:1010100088E59BE1FA0128E33AE4918380833383F6
:10102000228334962C5D3540243C69E03607A9F7CD
:10103000445D5F4F84529A4F8C3CABE59A0751F761
:1010400080E1FE013196DF01282F1D922A95E9F7F4
:1010500091E09D879E87A5E0B5E001900D928A956D
:10106000E1F795E0C92ED12CE12CF12C2BE0822E5A
:101070009924939482E294E09AD9892B71F080911B
:101080001C0490911D04019690931D0480931C04F0
:101090008130910521F0029781F02BDAEBCFC092DD
:1010A0002604D0922704E0922804F09229046CDBF5
:1010B00070931F0460931E04F0CFC0922604D09258
:1010C0002704E0922804F09229045EDB7093210447
:1010D0006093200410921D0410921C0420911105AD
:1010E0002223D9F2209112052223B9F220911E0465
:1010F00030911F04829EF001839EF00D1124E60FB3
:10110000F71FEE0FFF1FEE0FFF1FE85CFD4F028180
:101110001381A080B1808091050590910605A816E5
:10112000B906A4F561E087E3A2DA10921305809175
:101130000705909108050817190774F561E08DE31C
:1011400096DA1092140581E020910505309106058C
:101150002A153B0509F480E08093090581E0209180
:101160000705309108052017310709F480E08093C6
:101170000A05B0920E05A0920D051093100500937C
:101180000F05109211051092120587CF60E087E3DA
:101190006EDA90921305CBCF60E08DE368DA90921F
:1011A0001405D1CF09D0A59F900DB49F900DA49F99
:1011B000800D911D11240895A29FB001B39FC0011D
:1011C000A39F700D811D1124911DB29F700D811D73
:1011D0001124911D0895EE0FFF1F881F8BBF0790EC
:0A11E000F691E02D1994F894FFCF6A
:1011EA00010101000000000E027901A6015A02D78E
:1011FA0001B501C901564D4450565F317C315F56E5
:06120A004D4450560A009D
:00000001FF
