:1000000002C100002EC100002CC100002AC1000066
:1000100028C1000026C1000024C1000022C1000048
:1000200020C100001EC100001CC100001AC1000058
:1000300018C1000016C1000014C1000012C1000068
:1000400010C1000045C500000CC100000AC100003D
:1000500008C1000006C1000004C100005EC4000029
:1000600000C1000024C40000F9C30000FAC0000071
:10007000F8C00000F6C00000F4C00000F2C00000AC
:1000800096C40000EEC00000ECC00000EAC0000012
:10009000E8C00000E6C00000E4C00000E2C00000CC
:1000A000E0C00000DEC00000DCC00000DAC00000DC
:1000B000D8C00000D6C00000D4C00000D2C00000EC
:1000C000D0C00000CEC00000CCC00000CAC00000FC
:1000D000C8C00000C6C00000C4C00000C2C000000C
:1000E000C0C00000000020002300260029002C00D2
:1000F0002F00320000010000030106010901000089
:100100000A0B02090C0D0E08070304010000000091
:1001100000000000000000000000000000000000DF
:10012000000000000000000000001211100000009C
:1001300000000000000000000000000000000000BF
:100140000000000000002200250028002B002E00E7
:100150003100340002010000050108010B0100001C
:100160002100240027002A002D0030003300010167
:100170000000040107010A01050505050705080837
:100180000808020202020A0A080804040404010121
:100190000101010101010303030303030303040736
:1001A00007070C0C0C0C0C0C0C0C020202020606CD
:1001B0000606060606060B0B0B0B0B0B0B0B0102C0
:1001C0001020200808102040102040800201020169
:1001D0000804020101020408102040808040201021
:1001E000080402018004020180402010080402017A
:1001F00008040201010204081020408001020408E2
:1002000010204080A40611241FBECFEFD1E2DEBF34
:10021000CDBF00E00CBF24E0A6E1B2E001C01D921A
:10022000A03CB207E1F712E0A0E0B2E0E8E2F1E1C1
:1002300000E00BBF02C007900D92A631B107D9F7BD
:1002400011E0C3E0D1E000E005C021970109802F53
:10025000FE0160D7C230D10780E00807B1F7AAD508
:1002600061C7CECE90E0FC01E254FE4F2491885845
:100270009E4FFC018491882399F090E0880F991F8C
:10028000FC01E25AFE4FA591B491FC01EC5BFE4FDC
:10029000859194918FB7F894EC91E22BEC938FBFFA
:1002A0000895AF92BF92CF92DF92EF92FF920F9399
:1002B0001F93CF93DF936C017B018B01040F151FFC
:1002C000EB015E01AE18BF08C017D10759F0699164
:1002D000D601ED91FC910190F081E02DC6011995B8
:1002E000892B79F7C501DF91CF911F910F91FF9075
:1002F000EF90DF90CF90BF90AF900895FC01538DA9
:10030000448D252F30E0842F90E0821B930B5417EF
:1003100010F0CF96089501970895FC01918D828D7C
:10032000981761F0A28DAE0FBF2FB11D5D968C9115
:10033000928D9F5F9F73928F90E008958FEF9FEF54
:100340000895FC01918D828D981731F0828DE80F10
:10035000F11D858D90E008958FEF9FEF08952FB7E1
:10036000F89480910E0490910F04A0911004B09124
:1003700011042FBF80931A0490931B04A0931C04B4
:10038000B0931D0482E194E0DCDF97FF26C02FB715
:10039000F89480910E0490910F04A0911004B091F4
:1003A00011042FBF40911A0450911B0460911C044A
:1003B00070911D04841B950BA60BB70B409116047E
:1003C00050911704609118047091190484179507CF
:1003D000A607B707B8F28FEF9FEF0895CF92DF928D
:1003E000EF92FF92CF93BBDFFC0197FD4AC08D32A5
:1003F000910521F0C0970A9708F03DC0C12CD12C7F
:100400007601C0E0E130F105C9F0ED32F105B9F156
:10041000CF01C0970A9790F4AAE0B0E0A701960137
:1004200060D66F01FF0FEE08FF08C60ED71EE81E4C
:10043000F91E80E3C81AD108E108F10882E194E0CE
:100440006CDF8DDFFC01C0970A97E0F2E130F10527
:10045000C9F2CC2341F0F094E094D094C094C11C34
:10046000D11CE11CF11CC701B601CF91FF90EF90A8
:10047000DF90CF90089582E194E04FDFB4CFC1E0E8
:10048000DDCFC12CD12C7601EECFFC01918D228DD8
:10049000892F90E0805C9F4F821B91098F73992771
:1004A000089582E194E0F1DF21E0892B09F420E056
:1004B000822F0895FC01A48DA80FB92FB11DA35A56
:1004C000BF4F2C91848D90E001968F739927848F74
:1004D000A689B7892C93A089B1898C918370806497
:1004E0008C93938D848D981306C00288F389E02D38
:1004F00080818F7D80830895EF92FF920F931F93E9
:10050000CF93DF93EC0181E0888F9B8D8C8D9813C6
:100510001AC0E889F989808185FF15C09FB7F894D2
:10052000EE89FF896083E889F9898081837080641E
:1005300080839FBF81E090E0DF91CF911F910F9169
:10054000FF90EF900895F62E0B8D10E00F5F1F4F78
:100550000F731127E02E8C8D8E110BC00FB607FC88
:10056000FACFE889F989808185FFF5CFCE01A2DF36
:10057000F2CFEB8DEC0FFD2FF11DE35AFF4FF08210
:100580009FB7F8940B8FEA89FB8980818062D0CF76
:10059000CF93DF93EC01888D8823B1F0AA89BB89C2
:1005A000E889F9898C9185FD03C0808186FD0CC0A6
:1005B0000FB607FCF7CF8C9185FFF2CF808185FFC6
:1005C000EDCFCE0177DFEACFDF91CF91089580E0C4
:1005D00090E0892B21F065DF81110E94000080E00E
:1005E00090E0892B49F080E090E0892B29F00E946F
:1005F000000081110E94000080E090E0892B49F00A
:1006000080E090E0892B29F00E94000081110E9477
:10061000000080E090E0892B49F080E090E0892B99
:1006200029F00E94000081110C940000089581506F
:10063000823108F059C0E82FF0E08827EE5DFC4FCA
:100640008F4F68C54203460334033A033E037403E5
:1006500049034F03530359035D03610367036B03AE
:1006600074036F0375037903809180008F77809303
:1006700080000895809180008F7DF9CF8091800067
:10068000877FF5CF84B58F7784BD089584B58F7D3E
:10069000FBCF8091B0008F778093B0000895809158
:1006A000B0008F7DF9CF809190008F77809390007C
:1006B0000895809190008F7DF9CF80919000877F81
:1006C000F5CF8091A0008F778093A000089580914E
:1006D000A0008F7DF9CF8091A000877FF5CF80911A
:1006E00020018F77809320010895809120018F7DD4
:1006F000F9CF80912001877FF5CFCF93DF93282F0B
:1007000030E0F901E250FF4F8491F901E254FE4FCD
:10071000D491F901E858FE4FC491CC2399F081118E
:1007200086DFEC2FF0E0EE0FFF1FEC51FF4FA5919D
:10073000B491EC91ED2381E090E009F480E0DF9149
:10074000CF91089580E090E0FACF1F93CF93DF938D
:10075000282F30E0F901E250FF4F8491F901E25473
:10076000FE4FD491F901E858FE4FC491CC23A1F07B
:10077000162F81115CDFEC2FF0E0EE0FFF1FEC5B1A
:10078000FE4FA591B4918FB7F894EC91111108C068
:10079000D095DE23DC938FBFDF91CF911F91089519
:1007A000DE2BF8CF0F931F93CF93DF932091BB04E1
:1007B000222309F440C02091BC042223E1F1EB0183
:1007C0008C018091AF049091B00408171907C4F50B
:1007D00061E087E3BADF1092BE048091B10490918A
:1007E000B204C817D9079CF561E08DE3AEDF109223
:1007F000BF0481E02091AF043091B004201731078D
:1008000009F480E08093B30481E02091B104309139
:10081000B2042C173D0709F480E08093B4041093D0
:10082000B8040093B704D093BA04C093B9041092EB
:10083000BB041092BC04DF91CF911F910F910895DA
:1008400060E087E382DF81E08093BE04C6CF60E092
:100850008DE37BDF81E08093BF04CBCF1F920F92AB
:100860000FB60F9211240BB60F922F933F934F9315
:100870005F936F937F938F939F93AF93BF93EF9308
:10088000FF9382E194E016DEFF91EF91BF91AF916B
:100890009F918F917F916F915F914F913F912F9198
:1008A0000F900BBE0F900FBE0F901F9018951F92C8
:1008B0000F920FB60F9211240BB60F922F938F93B6
:1008C0009F93EF93FF93E0912204F09123048081A2
:1008D000E0912804F091290482FD1DC0908180914F
:1008E0002B048F5F8F7320912C04821741F0E091CD
:1008F0002B04F0E0EE5EFB4F958F80932B04FF916D
:10090000EF919F918F912F910F900BBE0F900FBE83
:100910000F901F9018958081F2CF1F920F920FB603
:100920000F9211242F933F938F939F93AF93BF9375
:1009300080910E0490910F04A0911004B0911104C5
:100940003091200223E0230F2D3758F50196A11D89
:10095000B11D2093200280930E0490930F04A09366
:100960001004B093110480911C0290911D02A0917B
:100970001E02B0911F020196A11DB11D80931C02A1
:1009800090931D02A0931E02B0931F02BF91AF91DE
:100990009F918F913F912F910F900FBE0F901F90BD
:1009A000189526E8230F0296A11DB11DD2CF1F92E4
:1009B0000F920FB60F9211240BB60F922F933F9305
:1009C0004F935F936F937F938F939F93AF93BF9357
:1009D000EF93FF938091B404882309F458C08EE00C
:1009E0008CDE892B29F48091BF04882309F44FC041
:1009F0001092BC0480910102882309F462C08091A6
:100A0000180290911902019690931902809318028E
:100A10002091B1043091B2044091B9045091BA04CC
:100A2000B901641B750BAB0177FF03C0519541956C
:100A300051098417950734F11092B4044091BF0412
:100A40004423C1F1820F931F9093B2048093B104A9
:100A500010921902109218028091B604882331F086
:100A60001092B2041092B1041092B60481E0809307
:100A7000BC049091BD04992329F09091BB0491117D
:100A80008093B50461E08CE360DE10920102FF9177
:100A9000EF91BF91AF919F918F917F916F915F91F6
:100AA0004F913F912F910F900BBE0F900FBE0F9063
:100AB0001F901895281B390B3093B2042093B10472
:100AC000C7CF60E08CE341DE81E080930102DFCF9D
:100AD0001F920F920FB60F9211240BB60F922F9305
:100AE0003F934F935F936F937F938F939F93AF93B6
:100AF000BF93CF93DF93EF93FF938091B304882349
:100B000009F459C083E0F9DD019729F08091BE0412
:100B1000882309F450C01092BB04809102028823FC
:100B200009F46DC080911A0290911B020196909376
:100B30001B0280931A022091AF043091B0044091BF
:100B4000B7045091B804B901641B750BAB0177FF72
:100B500003C0519541955109841795073CF11092B6
:100B6000B3044091BE04442309F442C0820F931F92
:100B70009093B0048093AF0410921B0210921A025B
:100B80008091B604882331F01092B0041092AF0423
:100B90001092B60481E08093BB049091BD04992328
:100BA00029F09091BC0491118093B50461E086E333
:100BB000CCDD109202028091B504882309F491C023
:100BC00080910002882309F4B2C0C0911602D0912E
:100BD00017022196D0931702C0931602C130D10597
:100BE000A9F460E080E3B1DD61E08EE2AEDD12C029
:100BF000281B390B3093B0042093AF04BDCF60E0C5
:100C000086E3A3DD81E080930202D5CFC03A7FE086
:100C1000D70754F3CE01805A9F408838934108F09B
:100C200052C0CD3C60E1D60764F460E087E38DDD1F
:100C300060E08DE38ADD61E086E387DD61E08CE3DF
:100C400084DDCE018D5C90418835924030F461E0C6
:100C500087E37BDD61E086E378DDCE018552934159
:100C60008835924030F461E08DE36FDD61E08CE324
:100C70006CDDCE018D5795418835924030F460E0AF
:100C800087E363DD61E086E360DDCE01855D97414A
:100C90008835924030F460E08DE357DD61E08CE30D
:100CA00054DDCE018D529A418C32914060F461E066
:100CB00087E34BDD61E08DE348DD61E086E345DD00
:100CC00061E08CE342DDCE0188529342803A9F403E
:100CD000E8F461E080E339DD61E08EE236DD109218
:100CE0000002FF91EF91DF91CF91BF91AF919F9162
:100CF0008F917F916F915F914F913F912F910F90C5
:100D00000BBE0F900FBE0F901F901895C83CD2439A
:100D100034F31092B50410921702109216026CEC84
:100D20007BE580E995E63EDD1092BD04D8CF60E01A
:100D30008EE20BDD60E086E308DD60E08CE305DD3C
:100D400081E080930002CDCFE2E1F4E013821282D1
:100D500088EE93E0A0E0B0E084839583A683B78318
:100D600087E092E09183808385EC90E0958784878B
:100D700084EC90E09787868780EC90E0918B808B65
:100D800081EC90E0938B828B82EC90E0958B848B4E
:100D900086EC90E0978B868B118E128E138E148EBC
:100DA000EFEAF4E014821582168281E08487858759
:100DB00016860895CF93DF93CDB7DEB761970FB650
:100DC000F894DEBF0FBECDBF789484B5826084BD39
:100DD00084B5816084BD85B5826085BD85B581603F
:100DE00085BD80916E00816080936E0010928100BD
:100DF0008091810082608093810080918100816078
:100E00008093810080918000816080938000809138
:100E1000B10084608093B1008091B00081608093C4
:100E2000B000809191008260809391008091910048
:100E30008160809391008091900081608093900008
:100E40008091A10082608093A1008091A1008160C7
:100E50008093A1008091A00081608093A000809188
:100E60002101826080932101809121018160809322
:100E700021018091200181608093200180917A007E
:100E8000846080937A0080917A00826080937A00F7
:100E900080917A00816080937A0080917A008068E6
:100EA00080937A001092C10081E0809321028093A8
:100EB000220280932302E0912204F091230412E0A5
:100EC0001083E0911E04F0911F041082E091200431
:100ED000F091210480E1808310922A04E09126049D
:100EE000F091270486E08083E0912404F0912504AA
:100EF000808180618083E0912404F09125048081C9
:100F000088608083E0912404F091250480818068CA
:100F10008083E0912404F091250480818F7D80837B
:100F200083E0A0D961E083E010DC8EE09BD961E032
:100F30008EE00BDC109280000AE00093810010929A
:100F40008200109285001092840028ECE22EF12C91
:100F5000F0928900E092880010936F0086E382D9B6
:100F600087E380D986E27ED960E086E2EEDB1092EC
:100F700090000093910010929200109295001092B0
:100F80009400F0929900E0929800109371008CE325
:100F900069D98DE367D988E365D960E088E3D5DB5B
:100FA0008EE260D980E35ED98EE35CD960E08EE3A7
:100FB000CCDB44E252E082E59CE1FA0128E33AE42A
:100FC000918380833383228334962A5A35402A3E84
:100FD0006BE03607A9F7445D5F4F86559A4F803A1C
:100FE000AAE59A0751F781E1FE013196DF01282F2A
:100FF0001D922A95E9F791E09D879E87AFEAB4E0BC
:1010000001900D928A95E1F795E0C92ED12CE12C43
:10101000F12C1BE001E082E194E037DA892B71F0DA
:10102000809108049091090401969093090480939B
:1010300008048130910521F0029781F0C8DAEBCFE6
:10104000C0921604D0921704E0921804F09219048A
:10105000C5D970930B0460930A04F0CFC0921604B4
:10106000D0921704E0921804F0921904B7D9709343
:101070000D0460930C04109209041092080420914E
:101080000A0430910B042431310559F4643171059F
:1010900099F46CEC7BE580E995E684DB1092BD0465
:1010A000CDCF2331310541F46331710529F470E06E
:1010B00060E090E080E0F1CF129FF001139FF00D0F
:1010C0001124E60FF71FEE0FFF1FEE0FFF1FEC5D61
:1010D000FD4F628173818081918164DB0093BD0447
:1010E000ADCF09D0A59F900DB49F900DA49F800D0A
:1010F000911D11240895A29FB001B39FC001A39F29
:10110000700D811D1124911DB29F700D811D112440
:10111000911D0895EE0FFF1F881F8BBF0790F6915A
:08112000E02D1994F894FFCFB3
:10112800010101000000007C0251017E01C8024556
:06113800028D01A101007F
:00000001FF
