:10000000F5C0000021C100001FC100001DC100009B
:100010001BC1000019C1000017C1000015C100007C
:1000200013C1000011C100000FC100000DC100008C
:100030000BC1000009C1000007C1000005C100009C
:1000400003C10000A9C40000FFC00000FDC0000003
:10005000FBC00000F9C00000F7C0000026C400008B
:10006000F3C00000ECC30000C1C30000EDC00000FD
:10007000EBC00000E9C00000E7C00000E5C00000E0
:100080005EC40000E1C00000DFC00000DDC0000071
:10009000DBC00000D9C00000D7C00000D5C0000000
:1000A000D3C00000D1C00000CFC00000CDC0000010
:1000B000CBC00000C9C00000C7C00000C5C0000020
:1000C000C3C00000C1C00000BFC00000BDC0000030
:1000D000BBC00000B9C00000B7C00000B5C0000040
:1000E000B3C0000000000A0B02090C0D0E08070344
:1000F00004010000000000000000000000000000FB
:1001000000000000000000000000000000000000EF
:1001100012111000000000000000000000000000AC
:100120000000000000000000000000002200250088
:1001300028002B002E0031003400020100000501D0
:1001400008010B0100002100240027002A002D00D7
:100150003000330001010000040107010A01050518
:100160000505070508080808020202020A0A08082D
:10017000040404040101010101010101030303035B
:1001800003030303040707070C0C0C0C0C0C0C0CEA
:100190000202020206060606060606060B0B0B0BFB
:1001A0000B0B0B0B01021020200808102040102020
:1001B000408002010201080402010102040810202B
:1001C0004080804020100804020180040201804029
:1001D0002010080402010804020101020408102092
:1001E00040800102040810204080370611241FBE01
:1001F000CFEFD1E2DEBFCDBF00E00CBF23E0ACE724
:10020000B2E001C01D92A937B207E1F712E0A0E009
:10021000B2E0E0EAF0E100E00BBF02C007900D920F
:10022000AC37B107D9F710E0C6EFD0E000E005C069
:1002300021970109802FFE0129D7C53FD10780E012
:100240000807B1F75DD52AC7DBCE90E0FC01EC557D
:10025000FE4F2491825A9E4FFC018491882399F08D
:1002600090E0880F991FFC01EC5BFE4FA591B491C3
:10027000FC01E65DFE4F859194918FB7F894EC9167
:10028000E22BEC938FBF0895E8E8F2E0A089B189F2
:1002900082E08C93A485B5851C92A685B78580E104
:1002A0008C93108EA489B58986E08C93A289B3893A
:1002B0008C9180618C93A289B3898C9188608C9396
:1002C000A289B3898C9180688C930288F389E02D90
:1002D00080818F7D80830895AF92BF92CF92DF920D
:1002E000EF92FF920F931F93CF93DF936C017B01EB
:1002F0008B01040F151FEB015E01AE18BF08C0177C
:10030000D10759F06991D601ED91FC910190F081EE
:10031000E02DC6011995892B79F7C501DF91CF91A1
:100320001F910F91FF90EF90DF90CF90BF90AF9013
:100330000895FC01538D448D252F30E0842F90E0EB
:10034000821B930B541710F0CF96089501970895D0
:10035000FC01918D828D981761F0A28DAE0FBF2F99
:10036000B11D5D968C91928D9F5F9F73928F90E0EF
:1003700008958FEF9FEF0895FC01918D828D98175E
:1003800031F0828DE80FF11D858D90E008958FEF9B
:100390009FEF0895FC01918D228D892F90E0805C64
:1003A0009F4F821B91098F739927089588E892E0E7
:1003B000F1DF21E0892B09F420E0822F0895FC0170
:1003C000A48DA80FB92FB11DA35ABF4F2C91848DB6
:1003D00090E001968F739927848FA689B7892C9313
:1003E000A089B1898C91837080648C93938D848D66
:1003F000981306C00288F389E02D80818F7D808369
:100400000895EF92FF920F931F93CF93DF93EC0128
:1004100081E0888F9B8D8C8D98131AC0E889F989AB
:10042000808185FF15C09FB7F894EE89FF896083AE
:10043000E889F98980818370806480839FBF81E02F
:1004400090E0DF91CF911F910F91FF90EF90089571
:10045000F62E0B8D10E00F5F1F4F0F731127E02E4C
:100460008C8D8E110BC00FB607FCFACFE889F98985
:10047000808185FFF5CFCE01A2DFF2CFEB8DEC0FAF
:10048000FD2FF11DE35AFF4FF0829FB7F8940B8FB9
:10049000EA89FB8980818062D0CFCF93DF93EC0122
:1004A000888D8823B1F0AA89BB89E889F9898C9164
:1004B00085FD03C0808186FD0CC00FB607FCF7CF19
:1004C0008C9185FFF2CF808185FFEDCFCE0177DF64
:1004D000EACFDF91CF91089580E090E0892B21F061
:1004E00065DF81110E94000080E090E0892B49F0D7
:1004F00080E090E0892B29F00E94000081110E9489
:10050000000080E090E0892B49F080E090E0892BAA
:1005100029F00E94000081110E94000080E090E01C
:10052000892B49F080E090E0892B29F00E9400009F
:1005300081110C9400000895282F30E0F901EC514E
:10054000FF4F9491F901EC55FE4F4491225A3E4FD2
:10055000F9012491222309F434C0992309F191501F
:100560009231F0F4E92FF0E08827E754FD4F8F4FE8
:100570008DC5EA02EE02CB02E202E602D002F102EF
:10058000F702FB020103050309030F031303D00263
:1005900017031D032103809180008F7780938000D3
:1005A000E22FF0E0EE0FFF1FE65DFE4FA591B49144
:1005B0008FB7F894EC91611148C040954E234C934D
:1005C0008FBF0895809180008F7DE8CF809180005B
:1005D000877FE4CF84B58F7784BDE2CF84B58F7DEC
:1005E000FBCF8091B0008F778093B000D9CF8091FE
:1005F000B0008F7DF9CF809190008F77809390002D
:10060000CFCF809190008F7DF9CF80919000877F30
:10061000F5CF8091A0008F778093A000C1CF80910B
:10062000A0008F7DF9CF8091A000877FF5CF8091CA
:1006300020018F7780932001B3CF809120018F7D9F
:10064000F9CF80912001877FF5CF4E2BB8CF3FB7F0
:10065000F8948091810290918202A0918302B091DE
:10066000840226B5A89B05C02F3F19F00196A11D55
:10067000B11D3FBFBA2FA92F982F8827BC01CD01EC
:10068000620F711D811D911D42E0660F771F881F4B
:10069000991F4A95D1F708952FB7F89460917D027C
:1006A00070917E0280917F02909180022FBF089509
:1006B0008F929F92AF92BF92CF92DF92EF92FF9272
:1006C0006B017C01E9DF4B015C01C80CD91CEA1C01
:1006D000FB1CE2DF681579058A059B0528F0C61624
:1006E000D706E806F906A8F7FF90EF90DF90CF90C5
:1006F000BF90AF909F908F900895FC0101900020D3
:10070000E9F73197AF01481B590BBC0188E892E02B
:10071000E3CD8F929F92AF92BF920F931F93CF938F
:10072000DF93CDB7DEB7A1970FB6F894DEBF0FBE4B
:10073000CDBF19A2423008F44AE08E010F5D1F4F71
:10074000842E912CB12CA12CA50194017DD4E62FEF
:10075000B901CA01EA30ECF4E05DD801EE938D01F5
:10076000232B242B252B81F790E080E0109711F0AC
:10077000CD01C3DFA1960FB6F894DEBF0FBECDBF8B
:10078000DF91CF911F910F91BF90AF909F908F906D
:100790000895E95CE2CFCF92DF92EF92FF92CF9380
:1007A000DF936B017C016DE288E892E02ADEEC01C8
:1007B00066277727CB016C197D098E099F094AE0CE
:1007C000A8DF8C0F9D1FDF91CF91FF90EF90DF90FE
:1007D000CF900895CF93DF9390DFEC0182E192E018
:1007E0008CDF8C0F9D1FDF91CF9108951F920F9288
:1007F0000FB60F9211240BB60F922F933F934F9386
:100800005F936F937F938F939F93AF93BF93EF9378
:10081000FF9388E892E0D3DDFF91EF91BF91AF9114
:100820009F918F917F916F915F914F913F912F9108
:100830000F900BBE0F900FBE0F901F9018951F9238
:100840000F920FB60F9211240BB60F922F938F9326
:100850009F93EF93FF93E0919802F091990280812A
:10086000E0919E02F0919F0282FD1DC090818091D7
:10087000A1028F5F8F732091A202821741F0E09155
:10088000A102F0E0E857FD4F958F8093A102FF9100
:10089000EF919F918F912F910F900BBE0F900FBEF4
:1008A0000F901F9018958081F2CF1F920F920FB674
:1008B0000F9211242F933F938F939F93AF93BF93E6
:1008C00080917D0290917E02A0917F02B091800282
:1008D00030917C0223E0230F2D3758F50196A11D9E
:1008E000B11D20937C0280937D0290937E02A093A1
:1008F0007F02B09380028091810290918202A09148
:100900008302B09184020196A11DB11D80938102E2
:1009100090938202A0938302B0938402BF91AF911F
:100920009F918F913F912F910F900FBE0F901F902D
:10093000189526E8230F0296A11DB11DD2CF1F9254
:100940000F920FB60F9211240BB60F922F933F9375
:100950004F935F936F937F938F939F93AF93BF93C7
:10096000EF93FF9380917303882319F060E08CE389
:10097000E3DDFF91EF91BF91AF919F918F917F91B7
:100980006F915F914F913F912F910F900BBE0F9000
:100990000FBE0F901F9018951F920F920FB60F92D7
:1009A00011240BB60F928F929F92AF92BF92CF926B
:1009B000DF92EF92FF922F933F934F935F936F934A
:1009C0007F938F939F93AF93BF93EF93FF9384EFA6
:1009D00091E0A0E0B0E08093330390933403A093C0
:1009E0003503B093360310923703109238031092F8
:1009F000390310923A0380912B0390912C03A0911C
:100A00002D03B0912E0380932F0390933003A09376
:100A10003103B093320340DE60932B0370932C03B9
:100A200080932D0390932E0365E070E080E090E0CA
:100A30003FDE6AE070E080E090E03ADE85E6809399
:100A40003C0382E3882E912CA12CB12C80913C0395
:100A5000833609F4E2C0853609F093C080913703EC
:100A600090913803A0913903B0913A030196A11DEA
:100A7000B11D8093370390933803A0933903B0934B
:100A80003A034091330350913403609135037091E0
:100A90003603452B462B472B29F4892B8A2B8B2B8E
:100AA00009F06FC0F9DDC0902703D0902803E090D3
:100AB0002903F0902A03DC01CB018C199D09AE09B2
:100AC000BF0982339105A105B10548F4A501940140
:100AD000281B390B4A0B5B0BCA01B901E9DDDCDDD0
:100AE00060932703709328038093290390932A032C
:100AF000D3DD6B017C0182E592E0FFDD4AE061E03D
:100B000070E080E090E005DE89E592E0F6DD4AE005
:100B1000C701B601FEDD8BE592E0EFDD80912B038E
:100B200090912C03A0912D03B0912E03A701960163
:100B3000281B390B4A0B5B0BCA01B9014AE0E9DDFE
:100B40008BE592E0DADD60912B0370912C038091AC
:100B50002D0390912E03C0902F03D0903003E0908E
:100B60003103F09032036C197D098E099F094AE028
:100B7000D0DD8DE592E02EDE64EF71E080E090E064
:100B800097DD6AE070E080E090E092DD80913B03C9
:100B9000882309F43DC088E892E0FCDB81110AC09B
:100BA00085E680933C0352CF2137310589F1263702
:100BB0003105B9F388E892E0EDDB882389F388E812
:100BC00092E0C6DB9C0133272836310509F164F732
:100BD00028353105F9F02336310561F75DDD609385
:100BE0002703709328038093290390932A0384E6B4
:100BF00092E083DD4AE061E070E080E090E089DD32
:100C00008BE692E0E7DD62E370E080E090E050DDAB
:100C100083E6C7CF10923B03FBCF3EDD60932B03EF
:100C200070932C0380932D0390932E0382E792E020
:100C3000D1DD60E086E380DCFF91EF91BF91AF9161
:100C40009F918F917F916F915F914F913F912F91E4
:100C5000FF90EF90DF90CF90BF90AF909F908F90DC
:100C60000F900BBE0F900FBE0F901F901895E8E8E5
:100C7000F2E01382128288EE93E0A0E0B0E0848379
:100C80009583A683B78384E092E09183808385EC8B
:100C900090E09587848784EC90E09787868780EC46
:100CA00090E0918B808B81EC90E0938B828B82EC37
:100CB00090E0958B848B86EC90E0978B868B118EE1
:100CC000128E138E148EE5E2F3E0168217821086E0
:100CD0001186128613861486158616861786108A44
:100CE000118A128A138A148A158AEBE6F3E01082BD
:100CF00011821282E2E7F3E01082118212820895DB
:100D0000789484B5826084BD84B5816084BD85B5E6
:100D1000826085BD85B5816085BD80916E008160F2
:100D200080936E0010928100809181008260809398
:100D3000810080918100816080938100809180009A
:100D40008160809380008091B10084608093B100C5
:100D50008091B00081608093B000809191008260AA
:100D600080939100809191008160809391008091A7
:100D700090008160809390008091A10082608093B8
:100D8000A1008091A10081608093A1008091A000CA
:100D900081608093A0008091210182608093210175
:100DA00080912101816080932101809120018160E7
:100DB0008093200180917A00846080937A008091F2
:100DC0007A00826080937A0080917A0081608093BB
:100DD0007A0080917A00806880937A001092C10036
:100DE00010926703109268031092690310926A03CD
:100DF00010922703109228031092290310922A03BD
:100E000068EB7BE080E090E053DC21DC4B015C018F
:100E100098EEC92E93E0D92EE12CF12C18DC68193C
:100E200079098A099B09683E734081059105B0F3F1
:100E300021E0C21AD108E108F10888EE880E83E0AB
:100E4000981EA11CB11CC114D104E104F10431F7B6
:100E50001BDA22DC60932703709328038093290315
:100E600090932A0385E192E048DC6AE070E080E03C
:100E700090E01EDC81E080933B03809385028093A9
:100E800086028093870200DA87E292E0A3DC609119
:100E9000850270E090E080E04AE03BDC82E192E095
:100EA0002CDC86E292E096DC80918502882389F131
:100EB00080E592E08FDC1092800080E592E08ADC91
:100EC0008AE0809381001092820080E592E082DCCB
:100ED00088EC90E0909389008093880080E592E010
:100EE00079DC82E080936F0080E592E073DC86E33A
:100EF000ACD980E592E06EDC87E3A7D980E592E08B
:100F000069DC86E2A2D980E592E064DC60E086E2FA
:100F100013DB80918602882309F434C089E292E0D1
:100F200059DC1092900089E292E054DC8AE08093D0
:100F3000910089E292E04EDC1092920089E292E008
:100F400049DC88EC90E0909399008093980089E2C6
:100F500092E040DC82E08093710089E292E03ADC2A
:100F60008CE373D989E292E035DC8DE36ED989E2B6
:100F700092E030DC88E369D989E292E02BDC60E022
:100F800088E3DADA8BE292E025DC08E31FEF88ECF5
:100F9000E82EF12CCBE9DFE08DE292E01BDC88E863
:100FA00092E0F8D9892B51F182E392E013DC88E8D2
:100FB00092E0CED9813639F587E392E00BDC60E030
:100FC00086E3BADA60E08CE3B7DA85E492E002DC2B
:100FD00081E080936B0310926C034AE061E070E063
:100FE00080E090E096DB82E192E087DBF0926F0395
:100FF000E0926E031092710310927003CE0101977C
:10100000F1F76ADAC9CF8436C9F787E392E0E2DB09
:1010100061E086E391DA60E08CE38EDA85E492E0C9
:10102000D9DB81E080936B0310926C034AE061E0AE
:1010300070E080E090E06DDB82E192E05EDB109397
:101040006F0300936E03D6CFA1E21A2EAA1BBB1B1F
:10105000FD010DC0AA1FBB1FEE1FFF1FA217B30784
:10106000E407F50720F0A21BB30BE40BF50B661F9A
:10107000771F881F991F1A9469F76095709580955E
:1010800090959B01AC01BD01CF010895EE0FFF1FAC
:10109000881F8BBF0790F691E02D1994F894FFCF2D
:1010A0000000000001026C0199014D02CA01A80173
:1010B000BC010D0A00564D4450565F317C315F56DD
:1010C0004D4450560A00737300650076006C6F6FD4
:1010D00070006176616C006A756467656D656E7439
:1010E00020646972006D6F76696E676D6574686FF4
:1010F0006400564D4450455F003A323A005F564D09
:1011000044504500564D4450435F005F564D445097
:0C11100043007374657070696E67000026
:00000001FF
